{
	"contracts/Lottery.sol": {
		"Lottery": {
			"abi": [
				{
					"inputs": [],
					"stateMutability": "nonpayable",
					"type": "constructor"
				},
				{
					"inputs": [],
					"name": "Enter",
					"outputs": [],
					"stateMutability": "payable",
					"type": "function"
				},
				{
					"inputs": [],
					"name": "PayWinner",
					"outputs": [],
					"stateMutability": "payable",
					"type": "function"
				},
				{
					"inputs": [],
					"name": "PickWinner",
					"outputs": [
						{
							"internalType": "address payable",
							"name": "",
							"type": "address"
						}
					],
					"stateMutability": "view",
					"type": "function"
				},
				{
					"inputs": [],
					"name": "RegPlayers",
					"outputs": [
						{
							"internalType": "address payable[]",
							"name": "",
							"type": "address[]"
						}
					],
					"stateMutability": "view",
					"type": "function"
				},
				{
					"inputs": [],
					"name": "ResetLottery",
					"outputs": [],
					"stateMutability": "nonpayable",
					"type": "function"
				},
				{
					"inputs": [],
					"name": "WinningAmount",
					"outputs": [
						{
							"internalType": "uint256",
							"name": "",
							"type": "uint256"
						}
					],
					"stateMutability": "view",
					"type": "function"
				},
				{
					"inputs": [],
					"name": "manager",
					"outputs": [
						{
							"internalType": "address",
							"name": "",
							"type": "address"
						}
					],
					"stateMutability": "view",
					"type": "function"
				},
				{
					"inputs": [
						{
							"internalType": "uint256",
							"name": "",
							"type": "uint256"
						}
					],
					"name": "players",
					"outputs": [
						{
							"internalType": "address payable",
							"name": "",
							"type": "address"
						}
					],
					"stateMutability": "view",
					"type": "function"
				}
			],
			"devdoc": {
				"kind": "dev",
				"methods": {},
				"version": 1
			},
			"evm": {
				"assembly": "    /* \"contracts/Lottery.sol\":57:1815  contract Lottery{... */\n  mstore(0x40, 0x80)\n    /* \"contracts/Lottery.sol\":148:198  constructor(){... */\n  callvalue\n  dup1\n  iszero\n  tag_1\n  jumpi\n  0x00\n  dup1\n  revert\ntag_1:\n  pop\n    /* \"contracts/Lottery.sol\":181:191  msg.sender */\n  caller\n    /* \"contracts/Lottery.sol\":171:178  manager */\n  0x00\n  dup1\n    /* \"contracts/Lottery.sol\":171:191  manager = msg.sender */\n  0x0100\n  exp\n  dup2\n  sload\n  dup2\n  0xffffffffffffffffffffffffffffffffffffffff\n  mul\n  not\n  and\n  swap1\n  dup4\n  0xffffffffffffffffffffffffffffffffffffffff\n  and\n  mul\n  or\n  swap1\n  sstore\n  pop\n    /* \"contracts/Lottery.sol\":57:1815  contract Lottery{... */\n  dataSize(sub_0)\n  dup1\n  dataOffset(sub_0)\n  0x00\n  codecopy\n  0x00\n  return\nstop\n\nsub_0: assembly {\n        /* \"contracts/Lottery.sol\":57:1815  contract Lottery{... */\n      mstore(0x40, 0x80)\n      jumpi(tag_1, lt(calldatasize, 0x04))\n      shr(0xe0, calldataload(0x00))\n      dup1\n      0x893ef288\n      gt\n      tag_10\n      jumpi\n      dup1\n      0x893ef288\n      eq\n      tag_6\n      jumpi\n      dup1\n      0xab528275\n      eq\n      tag_7\n      jumpi\n      dup1\n      0xb7d2c654\n      eq\n      tag_8\n      jumpi\n      dup1\n      0xf71d96cb\n      eq\n      tag_9\n      jumpi\n      jump(tag_1)\n    tag_10:\n      dup1\n      0x1097e579\n      eq\n      tag_2\n      jumpi\n      dup1\n      0x481c6a75\n      eq\n      tag_3\n      jumpi\n      dup1\n      0x663df2cb\n      eq\n      tag_4\n      jumpi\n      dup1\n      0x8906272b\n      eq\n      tag_5\n      jumpi\n    tag_1:\n      0x00\n      dup1\n      revert\n        /* \"contracts/Lottery.sol\":442:734  function Enter()public payable {... */\n    tag_2:\n      tag_11\n      tag_12\n      jump\t// in\n    tag_11:\n      stop\n        /* \"contracts/Lottery.sol\":79:101  address public manager */\n    tag_3:\n      callvalue\n      dup1\n      iszero\n      tag_13\n      jumpi\n      0x00\n      dup1\n      revert\n    tag_13:\n      pop\n      tag_14\n      tag_15\n      jump\t// in\n    tag_14:\n      mload(0x40)\n      tag_16\n      swap2\n      swap1\n      tag_17\n      jump\t// in\n    tag_16:\n      mload(0x40)\n      dup1\n      swap2\n      sub\n      swap1\n      return\n        /* \"contracts/Lottery.sol\":1258:1354  function PayWinner() public payable{... */\n    tag_4:\n      tag_18\n      tag_19\n      jump\t// in\n    tag_18:\n      stop\n        /* \"contracts/Lottery.sol\":1461:1559  function RegPlayers()view public returns(address payable [] memory){... */\n    tag_5:\n      callvalue\n      dup1\n      iszero\n      tag_20\n      jumpi\n      0x00\n      dup1\n      revert\n    tag_20:\n      pop\n      tag_21\n      tag_22\n      jump\t// in\n    tag_21:\n      mload(0x40)\n      tag_23\n      swap2\n      swap1\n      tag_24\n      jump\t// in\n    tag_23:\n      mload(0x40)\n      dup1\n      swap2\n      sub\n      swap1\n      return\n        /* \"contracts/Lottery.sol\":1565:1813  function ResetLottery() public{... */\n    tag_6:\n      callvalue\n      dup1\n      iszero\n      tag_25\n      jumpi\n      0x00\n      dup1\n      revert\n    tag_25:\n      pop\n      tag_26\n      tag_27\n      jump\t// in\n    tag_26:\n      stop\n        /* \"contracts/Lottery.sol\":1360:1455  function WinningAmount() public view returns(uint){... */\n    tag_7:\n      callvalue\n      dup1\n      iszero\n      tag_28\n      jumpi\n      0x00\n      dup1\n      revert\n    tag_28:\n      pop\n      tag_29\n      tag_30\n      jump\t// in\n    tag_29:\n      mload(0x40)\n      tag_31\n      swap2\n      swap1\n      tag_32\n      jump\t// in\n    tag_31:\n      mload(0x40)\n      dup1\n      swap2\n      sub\n      swap1\n      return\n        /* \"contracts/Lottery.sol\":884:1252  function PickWinner() view public returns (address payable ){... */\n    tag_8:\n      callvalue\n      dup1\n      iszero\n      tag_33\n      jumpi\n      0x00\n      dup1\n      revert\n    tag_33:\n      pop\n      tag_34\n      tag_35\n      jump\t// in\n    tag_34:\n      mload(0x40)\n      tag_36\n      swap2\n      swap1\n      tag_37\n      jump\t// in\n    tag_36:\n      mload(0x40)\n      dup1\n      swap2\n      sub\n      swap1\n      return\n        /* \"contracts/Lottery.sol\":108:141  address payable [] public players */\n    tag_9:\n      callvalue\n      dup1\n      iszero\n      tag_38\n      jumpi\n      0x00\n      dup1\n      revert\n    tag_38:\n      pop\n      tag_39\n      0x04\n      dup1\n      calldatasize\n      sub\n      dup2\n      add\n      swap1\n      tag_40\n      swap2\n      swap1\n      tag_41\n      jump\t// in\n    tag_40:\n      tag_42\n      jump\t// in\n    tag_39:\n      mload(0x40)\n      tag_43\n      swap2\n      swap1\n      tag_37\n      jump\t// in\n    tag_43:\n      mload(0x40)\n      dup1\n      swap2\n      sub\n      swap1\n      return\n        /* \"contracts/Lottery.sol\":442:734  function Enter()public payable {... */\n    tag_12:\n        /* \"contracts/Lottery.sol\":505:512  manager */\n      0x00\n      dup1\n      sload\n      swap1\n      0x0100\n      exp\n      swap1\n      div\n      0xffffffffffffffffffffffffffffffffffffffff\n      and\n        /* \"contracts/Lottery.sol\":491:512  msg.sender != manager */\n      0xffffffffffffffffffffffffffffffffffffffff\n      and\n        /* \"contracts/Lottery.sol\":491:501  msg.sender */\n      caller\n        /* \"contracts/Lottery.sol\":491:512  msg.sender != manager */\n      0xffffffffffffffffffffffffffffffffffffffff\n      and\n      sub\n        /* \"contracts/Lottery.sol\":483:541  require(msg.sender != manager, \"Managers are not allowed\") */\n      tag_45\n      jumpi\n      mload(0x40)\n      0x08c379a000000000000000000000000000000000000000000000000000000000\n      dup2\n      mstore\n      0x04\n      add\n      tag_46\n      swap1\n      tag_47\n      jump\t// in\n    tag_46:\n      mload(0x40)\n      dup1\n      swap2\n      sub\n      swap1\n      revert\n    tag_45:\n        /* \"contracts/Lottery.sol\":582:587  false */\n      0x00\n        /* \"contracts/Lottery.sol\":559:587  AlreadyRegistered() == false */\n      iszero\n      iszero\n        /* \"contracts/Lottery.sol\":559:578  AlreadyRegistered() */\n      tag_48\n        /* \"contracts/Lottery.sol\":559:576  AlreadyRegistered */\n      tag_49\n        /* \"contracts/Lottery.sol\":559:578  AlreadyRegistered() */\n      jump\t// in\n    tag_48:\n        /* \"contracts/Lottery.sol\":559:587  AlreadyRegistered() == false */\n      iszero\n      iszero\n      eq\n        /* \"contracts/Lottery.sol\":551:614  require(AlreadyRegistered() == false, \"You already registered\") */\n      tag_50\n      jumpi\n      mload(0x40)\n      0x08c379a000000000000000000000000000000000000000000000000000000000\n      dup2\n      mstore\n      0x04\n      add\n      tag_51\n      swap1\n      tag_52\n      jump\t// in\n    tag_51:\n      mload(0x40)\n      dup1\n      swap2\n      sub\n      swap1\n      revert\n    tag_50:\n        /* \"contracts/Lottery.sol\":645:652  1 ether */\n      0x0de0b6b3a7640000\n        /* \"contracts/Lottery.sol\":632:641  msg.value */\n      callvalue\n        /* \"contracts/Lottery.sol\":632:652  msg.value >= 1 ether */\n      lt\n      iszero\n        /* \"contracts/Lottery.sol\":624:683  require(msg.value >= 1 ether, \"Minimum payment is 1 Ether\") */\n      tag_53\n      jumpi\n      mload(0x40)\n      0x08c379a000000000000000000000000000000000000000000000000000000000\n      dup2\n      mstore\n      0x04\n      add\n      tag_54\n      swap1\n      tag_55\n      jump\t// in\n    tag_54:\n      mload(0x40)\n      dup1\n      swap2\n      sub\n      swap1\n      revert\n    tag_53:\n        /* \"contracts/Lottery.sol\":694:701  players */\n      0x01\n        /* \"contracts/Lottery.sol\":715:725  msg.sender */\n      caller\n        /* \"contracts/Lottery.sol\":694:727  players.push(payable(msg.sender)) */\n      swap1\n      dup1\n      0x01\n      dup2\n      sload\n      add\n      dup1\n      dup3\n      sstore\n      dup1\n      swap2\n      pop\n      pop\n      0x01\n      swap1\n      sub\n      swap1\n      0x00\n      mstore\n      keccak256(0x00, 0x20)\n      add\n      0x00\n      swap1\n      swap2\n      swap1\n      swap2\n      swap1\n      swap2\n      0x0100\n      exp\n      dup2\n      sload\n      dup2\n      0xffffffffffffffffffffffffffffffffffffffff\n      mul\n      not\n      and\n      swap1\n      dup4\n      0xffffffffffffffffffffffffffffffffffffffff\n      and\n      mul\n      or\n      swap1\n      sstore\n      pop\n        /* \"contracts/Lottery.sol\":442:734  function Enter()public payable {... */\n      jump\t// out\n        /* \"contracts/Lottery.sol\":79:101  address public manager */\n    tag_15:\n      0x00\n      dup1\n      sload\n      swap1\n      0x0100\n      exp\n      swap1\n      div\n      0xffffffffffffffffffffffffffffffffffffffff\n      and\n      dup2\n      jump\t// out\n        /* \"contracts/Lottery.sol\":1258:1354  function PayWinner() public payable{... */\n    tag_19:\n        /* \"contracts/Lottery.sol\":1303:1315  PickWinner() */\n      tag_58\n        /* \"contracts/Lottery.sol\":1303:1313  PickWinner */\n      tag_35\n        /* \"contracts/Lottery.sol\":1303:1315  PickWinner() */\n      jump\t// in\n    tag_58:\n        /* \"contracts/Lottery.sol\":1303:1324  PickWinner().transfer */\n      0xffffffffffffffffffffffffffffffffffffffff\n      and\n        /* \"contracts/Lottery.sol\":1303:1347  PickWinner().transfer(address(this).balance) */\n      0x08fc\n        /* \"contracts/Lottery.sol\":1325:1346  address(this).balance */\n      selfbalance\n        /* \"contracts/Lottery.sol\":1303:1347  PickWinner().transfer(address(this).balance) */\n      swap1\n      dup2\n      iszero\n      mul\n      swap1\n      mload(0x40)\n      0x00\n      mload(0x40)\n      dup1\n      dup4\n      sub\n      dup2\n      dup6\n      dup9\n      dup9\n      call\n      swap4\n      pop\n      pop\n      pop\n      pop\n      iszero\n      dup1\n      iszero\n      tag_60\n      jumpi\n      returndatasize\n      0x00\n      dup1\n      returndatacopy\n      revert(0x00, returndatasize)\n    tag_60:\n      pop\n        /* \"contracts/Lottery.sol\":1258:1354  function PayWinner() public payable{... */\n      jump\t// out\n        /* \"contracts/Lottery.sol\":1461:1559  function RegPlayers()view public returns(address payable [] memory){... */\n    tag_22:\n        /* \"contracts/Lottery.sol\":1502:1527  address payable [] memory */\n      0x60\n        /* \"contracts/Lottery.sol\":1545:1552  players */\n      0x01\n        /* \"contracts/Lottery.sol\":1538:1552  return players */\n      dup1\n      sload\n      dup1\n      0x20\n      mul\n      0x20\n      add\n      mload(0x40)\n      swap1\n      dup2\n      add\n      0x40\n      mstore\n      dup1\n      swap3\n      swap2\n      swap1\n      dup2\n      dup2\n      mstore\n      0x20\n      add\n      dup3\n      dup1\n      sload\n      dup1\n      iszero\n      tag_62\n      jumpi\n      0x20\n      mul\n      dup3\n      add\n      swap2\n      swap1\n      0x00\n      mstore\n      keccak256(0x00, 0x20)\n      swap1\n    tag_63:\n      dup2\n      0x00\n      swap1\n      sload\n      swap1\n      0x0100\n      exp\n      swap1\n      div\n      0xffffffffffffffffffffffffffffffffffffffff\n      and\n      0xffffffffffffffffffffffffffffffffffffffff\n      and\n      dup2\n      mstore\n      0x20\n      add\n      swap1\n      0x01\n      add\n      swap1\n      dup1\n      dup4\n      gt\n      tag_63\n      jumpi\n    tag_62:\n      pop\n      pop\n      pop\n      pop\n      pop\n      swap1\n      pop\n        /* \"contracts/Lottery.sol\":1461:1559  function RegPlayers()view public returns(address payable [] memory){... */\n      swap1\n      jump\t// out\n        /* \"contracts/Lottery.sol\":1565:1813  function ResetLottery() public{... */\n    tag_27:\n        /* \"contracts/Lottery.sol\":1627:1634  manager */\n      0x00\n      dup1\n      sload\n      swap1\n      0x0100\n      exp\n      swap1\n      div\n      0xffffffffffffffffffffffffffffffffffffffff\n      and\n        /* \"contracts/Lottery.sol\":1613:1634  msg.sender == manager */\n      0xffffffffffffffffffffffffffffffffffffffff\n      and\n        /* \"contracts/Lottery.sol\":1613:1623  msg.sender */\n      caller\n        /* \"contracts/Lottery.sol\":1613:1634  msg.sender == manager */\n      0xffffffffffffffffffffffffffffffffffffffff\n      and\n      eq\n        /* \"contracts/Lottery.sol\":1605:1673  require(msg.sender == manager, \"Only manager can reset the Lottery\") */\n      tag_65\n      jumpi\n      mload(0x40)\n      0x08c379a000000000000000000000000000000000000000000000000000000000\n      dup2\n      mstore\n      0x04\n      add\n      tag_66\n      swap1\n      tag_67\n      jump\t// in\n    tag_66:\n      mload(0x40)\n      dup1\n      swap2\n      sub\n      swap1\n      revert\n    tag_65:\n        /* \"contracts/Lottery.sol\":1716:1717  0 */\n      0x00\n        /* \"contracts/Lottery.sol\":1691:1712  address(this).balance */\n      selfbalance\n        /* \"contracts/Lottery.sol\":1691:1717  address(this).balance == 0 */\n      eq\n        /* \"contracts/Lottery.sol\":1683:1760  require(address(this).balance == 0, \"Current Lottery winner is not declared\") */\n      tag_68\n      jumpi\n      mload(0x40)\n      0x08c379a000000000000000000000000000000000000000000000000000000000\n      dup2\n      mstore\n      0x04\n      add\n      tag_69\n      swap1\n      tag_70\n      jump\t// in\n    tag_69:\n      mload(0x40)\n      dup1\n      swap2\n      sub\n      swap1\n      revert\n    tag_68:\n        /* \"contracts/Lottery.sol\":1803:1804  0 */\n      0x00\n        /* \"contracts/Lottery.sol\":1780:1805  new address payable [](0) */\n      0xffffffffffffffff\n      dup2\n      gt\n      iszero\n      tag_71\n      jumpi\n      tag_72\n      tag_73\n      jump\t// in\n    tag_72:\n    tag_71:\n      mload(0x40)\n      swap1\n      dup1\n      dup3\n      mstore\n      dup1\n      0x20\n      mul\n      0x20\n      add\n      dup3\n      add\n      0x40\n      mstore\n      dup1\n      iszero\n      tag_74\n      jumpi\n      dup2\n      0x20\n      add\n      0x20\n      dup3\n      mul\n      dup1\n      calldatasize\n      dup4\n      calldatacopy\n      dup1\n      dup3\n      add\n      swap2\n      pop\n      pop\n      swap1\n      pop\n    tag_74:\n      pop\n        /* \"contracts/Lottery.sol\":1770:1777  players */\n      0x01\n        /* \"contracts/Lottery.sol\":1770:1805  players = new address payable [](0) */\n      swap1\n      dup1\n      mload\n      swap1\n      0x20\n      add\n      swap1\n      tag_75\n      swap3\n      swap2\n      swap1\n      tag_76\n      jump\t// in\n    tag_75:\n      pop\n        /* \"contracts/Lottery.sol\":1565:1813  function ResetLottery() public{... */\n      jump\t// out\n        /* \"contracts/Lottery.sol\":1360:1455  function WinningAmount() public view returns(uint){... */\n    tag_30:\n        /* \"contracts/Lottery.sol\":1405:1409  uint */\n      0x00\n        /* \"contracts/Lottery.sol\":1427:1448  address(this).balance */\n      selfbalance\n        /* \"contracts/Lottery.sol\":1420:1448  return address(this).balance */\n      swap1\n      pop\n        /* \"contracts/Lottery.sol\":1360:1455  function WinningAmount() public view returns(uint){... */\n      swap1\n      jump\t// out\n        /* \"contracts/Lottery.sol\":884:1252  function PickWinner() view public returns (address payable ){... */\n    tag_35:\n        /* \"contracts/Lottery.sol\":927:942  address payable */\n      0x00\n        /* \"contracts/Lottery.sol\":979:980  0 */\n      dup1\n        /* \"contracts/Lottery.sol\":962:969  players */\n      0x01\n        /* \"contracts/Lottery.sol\":962:976  players.length */\n      dup1\n      sload\n      swap1\n      pop\n        /* \"contracts/Lottery.sol\":962:980  players.length > 0 */\n      gt\n        /* \"contracts/Lottery.sol\":954:1040  require(players.length > 0, \"Minimum two players have to register to select a winner\") */\n      tag_79\n      jumpi\n      mload(0x40)\n      0x08c379a000000000000000000000000000000000000000000000000000000000\n      dup2\n      mstore\n      0x04\n      add\n      tag_80\n      swap1\n      tag_81\n      jump\t// in\n    tag_80:\n      mload(0x40)\n      dup1\n      swap2\n      sub\n      swap1\n      revert\n    tag_79:\n        /* \"contracts/Lottery.sol\":1072:1079  manager */\n      0x00\n      dup1\n      sload\n      swap1\n      0x0100\n      exp\n      swap1\n      div\n      0xffffffffffffffffffffffffffffffffffffffff\n      and\n        /* \"contracts/Lottery.sol\":1058:1079  msg.sender == manager */\n      0xffffffffffffffffffffffffffffffffffffffff\n      and\n        /* \"contracts/Lottery.sol\":1058:1068  msg.sender */\n      caller\n        /* \"contracts/Lottery.sol\":1058:1079  msg.sender == manager */\n      0xffffffffffffffffffffffffffffffffffffffff\n      and\n      eq\n        /* \"contracts/Lottery.sol\":1050:1112  require(msg.sender == manager, \"Only Manager can access this\") */\n      tag_82\n      jumpi\n      mload(0x40)\n      0x08c379a000000000000000000000000000000000000000000000000000000000\n      dup2\n      mstore\n      0x04\n      add\n      tag_83\n      swap1\n      tag_84\n      jump\t// in\n    tag_83:\n      mload(0x40)\n      dup1\n      swap2\n      sub\n      swap1\n      revert\n    tag_82:\n        /* \"contracts/Lottery.sol\":1122:1138  uint winnerIndex */\n      0x00\n        /* \"contracts/Lottery.sol\":1152:1159  players */\n      0x01\n        /* \"contracts/Lottery.sol\":1152:1166  players.length */\n      dup1\n      sload\n      swap1\n      pop\n        /* \"contracts/Lottery.sol\":1141:1149  Random() */\n      tag_85\n        /* \"contracts/Lottery.sol\":1141:1147  Random */\n      tag_86\n        /* \"contracts/Lottery.sol\":1141:1149  Random() */\n      jump\t// in\n    tag_85:\n        /* \"contracts/Lottery.sol\":1141:1166  Random() % players.length */\n      tag_87\n      swap2\n      swap1\n      tag_88\n      jump\t// in\n    tag_87:\n        /* \"contracts/Lottery.sol\":1122:1166  uint winnerIndex = Random() % players.length */\n      swap1\n      pop\n        /* \"contracts/Lottery.sol\":1176:1198  address payable winner */\n      0x00\n        /* \"contracts/Lottery.sol\":1201:1208  players */\n      0x01\n        /* \"contracts/Lottery.sol\":1209:1220  winnerIndex */\n      dup3\n        /* \"contracts/Lottery.sol\":1201:1221  players[winnerIndex] */\n      dup2\n      sload\n      dup2\n      lt\n      tag_89\n      jumpi\n      tag_90\n      tag_91\n      jump\t// in\n    tag_90:\n    tag_89:\n      swap1\n      0x00\n      mstore\n      keccak256(0x00, 0x20)\n      add\n      0x00\n      swap1\n      sload\n      swap1\n      0x0100\n      exp\n      swap1\n      div\n      0xffffffffffffffffffffffffffffffffffffffff\n      and\n        /* \"contracts/Lottery.sol\":1176:1221  address payable winner = players[winnerIndex] */\n      swap1\n      pop\n        /* \"contracts/Lottery.sol\":1238:1244  winner */\n      dup1\n        /* \"contracts/Lottery.sol\":1231:1244  return winner */\n      swap3\n      pop\n      pop\n      pop\n        /* \"contracts/Lottery.sol\":884:1252  function PickWinner() view public returns (address payable ){... */\n      swap1\n      jump\t// out\n        /* \"contracts/Lottery.sol\":108:141  address payable [] public players */\n    tag_42:\n      0x01\n      dup2\n      dup2\n      sload\n      dup2\n      lt\n      tag_93\n      jumpi\n      0x00\n      dup1\n      revert\n    tag_93:\n      swap1\n      0x00\n      mstore\n      keccak256(0x00, 0x20)\n      add\n      0x00\n      swap2\n      pop\n      sload\n      swap1\n      0x0100\n      exp\n      swap1\n      div\n      0xffffffffffffffffffffffffffffffffffffffff\n      and\n      dup2\n      jump\t// out\n        /* \"contracts/Lottery.sol\":204:436  function AlreadyRegistered() view private returns (bool){... */\n    tag_49:\n        /* \"contracts/Lottery.sol\":255:259  bool */\n      0x00\n        /* \"contracts/Lottery.sol\":275:281  uint i */\n      dup1\n        /* \"contracts/Lottery.sol\":284:285  0 */\n      0x00\n        /* \"contracts/Lottery.sol\":275:285  uint i = 0 */\n      swap1\n      pop\n        /* \"contracts/Lottery.sol\":270:408  for (uint i = 0; i < players.length; i++){... */\n    tag_96:\n        /* \"contracts/Lottery.sol\":291:298  players */\n      0x01\n        /* \"contracts/Lottery.sol\":291:305  players.length */\n      dup1\n      sload\n      swap1\n      pop\n        /* \"contracts/Lottery.sol\":287:288  i */\n      dup2\n        /* \"contracts/Lottery.sol\":287:305  i < players.length */\n      lt\n        /* \"contracts/Lottery.sol\":270:408  for (uint i = 0; i < players.length; i++){... */\n      iszero\n      tag_97\n      jumpi\n        /* \"contracts/Lottery.sol\":343:353  msg.sender */\n      caller\n        /* \"contracts/Lottery.sol\":329:353  players[i] == msg.sender */\n      0xffffffffffffffffffffffffffffffffffffffff\n      and\n        /* \"contracts/Lottery.sol\":329:336  players */\n      0x01\n        /* \"contracts/Lottery.sol\":337:338  i */\n      dup3\n        /* \"contracts/Lottery.sol\":329:339  players[i] */\n      dup2\n      sload\n      dup2\n      lt\n      tag_99\n      jumpi\n      tag_100\n      tag_91\n      jump\t// in\n    tag_100:\n    tag_99:\n      swap1\n      0x00\n      mstore\n      keccak256(0x00, 0x20)\n      add\n      0x00\n      swap1\n      sload\n      swap1\n      0x0100\n      exp\n      swap1\n      div\n      0xffffffffffffffffffffffffffffffffffffffff\n      and\n        /* \"contracts/Lottery.sol\":329:353  players[i] == msg.sender */\n      0xffffffffffffffffffffffffffffffffffffffff\n      and\n      sub\n        /* \"contracts/Lottery.sol\":325:398  if (players[i] == msg.sender){... */\n      tag_102\n      jumpi\n        /* \"contracts/Lottery.sol\":379:383  true */\n      0x01\n        /* \"contracts/Lottery.sol\":372:383  return true */\n      swap2\n      pop\n      pop\n      jump(tag_95)\n        /* \"contracts/Lottery.sol\":325:398  if (players[i] == msg.sender){... */\n    tag_102:\n        /* \"contracts/Lottery.sol\":307:310  i++ */\n      dup1\n      dup1\n      0x01\n      add\n      swap2\n      pop\n      pop\n        /* \"contracts/Lottery.sol\":270:408  for (uint i = 0; i < players.length; i++){... */\n      jump(tag_96)\n    tag_97:\n      pop\n        /* \"contracts/Lottery.sol\":424:429  false */\n      0x00\n        /* \"contracts/Lottery.sol\":417:429  return false */\n      swap1\n      pop\n        /* \"contracts/Lottery.sol\":204:436  function AlreadyRegistered() view private returns (bool){... */\n    tag_95:\n      swap1\n      jump\t// out\n        /* \"contracts/Lottery.sol\":740:878  function Random()view private returns(uint){... */\n    tag_86:\n        /* \"contracts/Lottery.sol\":778:782  uint */\n      0x00\n        /* \"contracts/Lottery.sol\":805:870  sha256(abi.encodePacked(block.difficulty, block.number, players)) */\n      0x02\n        /* \"contracts/Lottery.sol\":829:845  block.difficulty */\n      prevrandao\n        /* \"contracts/Lottery.sol\":847:859  block.number */\n      number\n        /* \"contracts/Lottery.sol\":861:868  players */\n      0x01\n        /* \"contracts/Lottery.sol\":812:869  abi.encodePacked(block.difficulty, block.number, players) */\n      add(0x20, mload(0x40))\n      tag_104\n      swap4\n      swap3\n      swap2\n      swap1\n      tag_105\n      jump\t// in\n    tag_104:\n      mload(0x40)\n      0x20\n      dup2\n      dup4\n      sub\n      sub\n      dup2\n      mstore\n      swap1\n      0x40\n      mstore\n        /* \"contracts/Lottery.sol\":805:870  sha256(abi.encodePacked(block.difficulty, block.number, players)) */\n      mload(0x40)\n      tag_106\n      swap2\n      swap1\n      tag_107\n      jump\t// in\n    tag_106:\n      0x20\n      mload(0x40)\n      dup1\n      dup4\n      sub\n      dup2\n      dup6\n      gas\n      staticcall\n      iszero\n      dup1\n      iszero\n      tag_109\n      jumpi\n      returndatasize\n      0x00\n      dup1\n      returndatacopy\n      revert(0x00, returndatasize)\n    tag_109:\n      pop\n      pop\n      pop\n      mload(0x40)\n      returndatasize\n      not(0x1f)\n      0x1f\n      dup3\n      add\n      and\n      dup3\n      add\n      dup1\n      0x40\n      mstore\n      pop\n      dup2\n      add\n      swap1\n      tag_110\n      swap2\n      swap1\n      tag_111\n      jump\t// in\n    tag_110:\n        /* \"contracts/Lottery.sol\":800:871  uint(sha256(abi.encodePacked(block.difficulty, block.number, players))) */\n      0x00\n      shr\n        /* \"contracts/Lottery.sol\":793:871  return uint(sha256(abi.encodePacked(block.difficulty, block.number, players))) */\n      swap1\n      pop\n        /* \"contracts/Lottery.sol\":740:878  function Random()view private returns(uint){... */\n      swap1\n      jump\t// out\n    tag_76:\n      dup3\n      dup1\n      sload\n      dup3\n      dup3\n      sstore\n      swap1\n      0x00\n      mstore\n      keccak256(0x00, 0x20)\n      swap1\n      dup2\n      add\n      swap3\n      dup3\n      iszero\n      tag_112\n      jumpi\n      swap2\n      0x20\n      mul\n      dup3\n      add\n    tag_113:\n      dup3\n      dup2\n      gt\n      iszero\n      tag_114\n      jumpi\n      dup3\n      mload\n      dup3\n      exp(0x0100, 0x00)\n      dup2\n      sload\n      dup2\n      0xffffffffffffffffffffffffffffffffffffffff\n      mul\n      not\n      and\n      swap1\n      dup4\n      0xffffffffffffffffffffffffffffffffffffffff\n      and\n      mul\n      or\n      swap1\n      sstore\n      pop\n      swap2\n      0x20\n      add\n      swap2\n      swap1\n      0x01\n      add\n      swap1\n      jump(tag_113)\n    tag_114:\n    tag_112:\n      pop\n      swap1\n      pop\n      tag_115\n      swap2\n      swap1\n      tag_116\n      jump\t// in\n    tag_115:\n      pop\n      swap1\n      jump\t// out\n    tag_116:\n    tag_117:\n      dup1\n      dup3\n      gt\n      iszero\n      tag_118\n      jumpi\n      0x00\n      dup2\n      0x00\n      swap1\n      sstore\n      pop\n      0x01\n      add\n      jump(tag_117)\n    tag_118:\n      pop\n      swap1\n      jump\t// out\n        /* \"#utility.yul\":7:133   */\n    tag_119:\n        /* \"#utility.yul\":44:51   */\n      0x00\n        /* \"#utility.yul\":84:126   */\n      0xffffffffffffffffffffffffffffffffffffffff\n        /* \"#utility.yul\":77:82   */\n      dup3\n        /* \"#utility.yul\":73:127   */\n      and\n        /* \"#utility.yul\":62:127   */\n      swap1\n      pop\n        /* \"#utility.yul\":7:133   */\n      swap2\n      swap1\n      pop\n      jump\t// out\n        /* \"#utility.yul\":139:235   */\n    tag_120:\n        /* \"#utility.yul\":176:183   */\n      0x00\n        /* \"#utility.yul\":205:229   */\n      tag_177\n        /* \"#utility.yul\":223:228   */\n      dup3\n        /* \"#utility.yul\":205:229   */\n      tag_119\n      jump\t// in\n    tag_177:\n        /* \"#utility.yul\":194:229   */\n      swap1\n      pop\n        /* \"#utility.yul\":139:235   */\n      swap2\n      swap1\n      pop\n      jump\t// out\n        /* \"#utility.yul\":241:359   */\n    tag_121:\n        /* \"#utility.yul\":328:352   */\n      tag_179\n        /* \"#utility.yul\":346:351   */\n      dup2\n        /* \"#utility.yul\":328:352   */\n      tag_120\n      jump\t// in\n    tag_179:\n        /* \"#utility.yul\":323:326   */\n      dup3\n        /* \"#utility.yul\":316:353   */\n      mstore\n        /* \"#utility.yul\":241:359   */\n      pop\n      pop\n      jump\t// out\n        /* \"#utility.yul\":365:587   */\n    tag_17:\n        /* \"#utility.yul\":458:462   */\n      0x00\n        /* \"#utility.yul\":496:498   */\n      0x20\n        /* \"#utility.yul\":485:494   */\n      dup3\n        /* \"#utility.yul\":481:499   */\n      add\n        /* \"#utility.yul\":473:499   */\n      swap1\n      pop\n        /* \"#utility.yul\":509:580   */\n      tag_181\n        /* \"#utility.yul\":577:578   */\n      0x00\n        /* \"#utility.yul\":566:575   */\n      dup4\n        /* \"#utility.yul\":562:579   */\n      add\n        /* \"#utility.yul\":553:559   */\n      dup5\n        /* \"#utility.yul\":509:580   */\n      tag_121\n      jump\t// in\n    tag_181:\n        /* \"#utility.yul\":365:587   */\n      swap3\n      swap2\n      pop\n      pop\n      jump\t// out\n        /* \"#utility.yul\":593:715   */\n    tag_122:\n        /* \"#utility.yul\":668:674   */\n      0x00\n        /* \"#utility.yul\":702:707   */\n      dup2\n        /* \"#utility.yul\":696:708   */\n      mload\n        /* \"#utility.yul\":686:708   */\n      swap1\n      pop\n        /* \"#utility.yul\":593:715   */\n      swap2\n      swap1\n      pop\n      jump\t// out\n        /* \"#utility.yul\":721:913   */\n    tag_123:\n        /* \"#utility.yul\":828:839   */\n      0x00\n        /* \"#utility.yul\":862:868   */\n      dup3\n        /* \"#utility.yul\":857:860   */\n      dup3\n        /* \"#utility.yul\":850:869   */\n      mstore\n        /* \"#utility.yul\":902:906   */\n      0x20\n        /* \"#utility.yul\":897:900   */\n      dup3\n        /* \"#utility.yul\":893:907   */\n      add\n        /* \"#utility.yul\":878:907   */\n      swap1\n      pop\n        /* \"#utility.yul\":721:913   */\n      swap3\n      swap2\n      pop\n      pop\n      jump\t// out\n        /* \"#utility.yul\":919:1059   */\n    tag_124:\n        /* \"#utility.yul\":994:998   */\n      0x00\n        /* \"#utility.yul\":1017:1020   */\n      dup2\n        /* \"#utility.yul\":1009:1020   */\n      swap1\n      pop\n        /* \"#utility.yul\":1047:1051   */\n      0x20\n        /* \"#utility.yul\":1042:1045   */\n      dup3\n        /* \"#utility.yul\":1038:1052   */\n      add\n        /* \"#utility.yul\":1030:1052   */\n      swap1\n      pop\n        /* \"#utility.yul\":919:1059   */\n      swap2\n      swap1\n      pop\n      jump\t// out\n        /* \"#utility.yul\":1065:1169   */\n    tag_125:\n        /* \"#utility.yul\":1110:1117   */\n      0x00\n        /* \"#utility.yul\":1139:1163   */\n      tag_186\n        /* \"#utility.yul\":1157:1162   */\n      dup3\n        /* \"#utility.yul\":1139:1163   */\n      tag_119\n      jump\t// in\n    tag_186:\n        /* \"#utility.yul\":1128:1163   */\n      swap1\n      pop\n        /* \"#utility.yul\":1065:1169   */\n      swap2\n      swap1\n      pop\n      jump\t// out\n        /* \"#utility.yul\":1175:1307   */\n    tag_126:\n        /* \"#utility.yul\":1268:1300   */\n      tag_188\n        /* \"#utility.yul\":1294:1299   */\n      dup2\n        /* \"#utility.yul\":1268:1300   */\n      tag_125\n      jump\t// in\n    tag_188:\n        /* \"#utility.yul\":1263:1266   */\n      dup3\n        /* \"#utility.yul\":1256:1301   */\n      mstore\n        /* \"#utility.yul\":1175:1307   */\n      pop\n      pop\n      jump\t// out\n        /* \"#utility.yul\":1313:1524   */\n    tag_127:\n        /* \"#utility.yul\":1398:1408   */\n      0x00\n        /* \"#utility.yul\":1419:1481   */\n      tag_190\n        /* \"#utility.yul\":1477:1480   */\n      dup4\n        /* \"#utility.yul\":1469:1475   */\n      dup4\n        /* \"#utility.yul\":1419:1481   */\n      tag_126\n      jump\t// in\n    tag_190:\n        /* \"#utility.yul\":1513:1517   */\n      0x20\n        /* \"#utility.yul\":1508:1511   */\n      dup4\n        /* \"#utility.yul\":1504:1518   */\n      add\n        /* \"#utility.yul\":1490:1518   */\n      swap1\n      pop\n        /* \"#utility.yul\":1313:1524   */\n      swap3\n      swap2\n      pop\n      pop\n      jump\t// out\n        /* \"#utility.yul\":1530:1651   */\n    tag_128:\n        /* \"#utility.yul\":1608:1612   */\n      0x00\n        /* \"#utility.yul\":1640:1644   */\n      0x20\n        /* \"#utility.yul\":1635:1638   */\n      dup3\n        /* \"#utility.yul\":1631:1645   */\n      add\n        /* \"#utility.yul\":1623:1645   */\n      swap1\n      pop\n        /* \"#utility.yul\":1530:1651   */\n      swap2\n      swap1\n      pop\n      jump\t// out\n        /* \"#utility.yul\":1703:2499   */\n    tag_129:\n        /* \"#utility.yul\":1838:1841   */\n      0x00\n        /* \"#utility.yul\":1867:1929   */\n      tag_193\n        /* \"#utility.yul\":1923:1928   */\n      dup3\n        /* \"#utility.yul\":1867:1929   */\n      tag_122\n      jump\t// in\n    tag_193:\n        /* \"#utility.yul\":1945:2039   */\n      tag_194\n        /* \"#utility.yul\":2032:2038   */\n      dup2\n        /* \"#utility.yul\":2027:2030   */\n      dup6\n        /* \"#utility.yul\":1945:2039   */\n      tag_123\n      jump\t// in\n    tag_194:\n        /* \"#utility.yul\":1938:2039   */\n      swap4\n      pop\n        /* \"#utility.yul\":2063:2127   */\n      tag_195\n        /* \"#utility.yul\":2121:2126   */\n      dup4\n        /* \"#utility.yul\":2063:2127   */\n      tag_124\n      jump\t// in\n    tag_195:\n        /* \"#utility.yul\":2150:2157   */\n      dup1\n        /* \"#utility.yul\":2181:2182   */\n      0x00\n        /* \"#utility.yul\":2166:2474   */\n    tag_196:\n        /* \"#utility.yul\":2191:2197   */\n      dup4\n        /* \"#utility.yul\":2188:2189   */\n      dup2\n        /* \"#utility.yul\":2185:2198   */\n      lt\n        /* \"#utility.yul\":2166:2474   */\n      iszero\n      tag_198\n      jumpi\n        /* \"#utility.yul\":2267:2273   */\n      dup2\n        /* \"#utility.yul\":2261:2274   */\n      mload\n        /* \"#utility.yul\":2294:2373   */\n      tag_199\n        /* \"#utility.yul\":2369:2372   */\n      dup9\n        /* \"#utility.yul\":2354:2367   */\n      dup3\n        /* \"#utility.yul\":2294:2373   */\n      tag_127\n      jump\t// in\n    tag_199:\n        /* \"#utility.yul\":2287:2373   */\n      swap8\n      pop\n        /* \"#utility.yul\":2396:2464   */\n      tag_200\n        /* \"#utility.yul\":2457:2463   */\n      dup4\n        /* \"#utility.yul\":2396:2464   */\n      tag_128\n      jump\t// in\n    tag_200:\n        /* \"#utility.yul\":2386:2464   */\n      swap3\n      pop\n        /* \"#utility.yul\":2226:2474   */\n      pop\n        /* \"#utility.yul\":2213:2214   */\n      0x01\n        /* \"#utility.yul\":2210:2211   */\n      dup2\n        /* \"#utility.yul\":2206:2215   */\n      add\n        /* \"#utility.yul\":2201:2215   */\n      swap1\n      pop\n        /* \"#utility.yul\":2166:2474   */\n      jump(tag_196)\n    tag_198:\n        /* \"#utility.yul\":2170:2184   */\n      pop\n        /* \"#utility.yul\":2490:2493   */\n      dup6\n        /* \"#utility.yul\":2483:2493   */\n      swap4\n      pop\n        /* \"#utility.yul\":1843:2499   */\n      pop\n      pop\n      pop\n        /* \"#utility.yul\":1703:2499   */\n      swap3\n      swap2\n      pop\n      pop\n      jump\t// out\n        /* \"#utility.yul\":2505:2910   */\n    tag_24:\n        /* \"#utility.yul\":2664:2668   */\n      0x00\n        /* \"#utility.yul\":2702:2704   */\n      0x20\n        /* \"#utility.yul\":2691:2700   */\n      dup3\n        /* \"#utility.yul\":2687:2705   */\n      add\n        /* \"#utility.yul\":2679:2705   */\n      swap1\n      pop\n        /* \"#utility.yul\":2751:2760   */\n      dup2\n        /* \"#utility.yul\":2745:2749   */\n      dup2\n        /* \"#utility.yul\":2741:2761   */\n      sub\n        /* \"#utility.yul\":2737:2738   */\n      0x00\n        /* \"#utility.yul\":2726:2735   */\n      dup4\n        /* \"#utility.yul\":2722:2739   */\n      add\n        /* \"#utility.yul\":2715:2762   */\n      mstore\n        /* \"#utility.yul\":2779:2903   */\n      tag_202\n        /* \"#utility.yul\":2898:2902   */\n      dup2\n        /* \"#utility.yul\":2889:2895   */\n      dup5\n        /* \"#utility.yul\":2779:2903   */\n      tag_129\n      jump\t// in\n    tag_202:\n        /* \"#utility.yul\":2771:2903   */\n      swap1\n      pop\n        /* \"#utility.yul\":2505:2910   */\n      swap3\n      swap2\n      pop\n      pop\n      jump\t// out\n        /* \"#utility.yul\":2916:2993   */\n    tag_130:\n        /* \"#utility.yul\":2953:2960   */\n      0x00\n        /* \"#utility.yul\":2982:2987   */\n      dup2\n        /* \"#utility.yul\":2971:2987   */\n      swap1\n      pop\n        /* \"#utility.yul\":2916:2993   */\n      swap2\n      swap1\n      pop\n      jump\t// out\n        /* \"#utility.yul\":2999:3117   */\n    tag_131:\n        /* \"#utility.yul\":3086:3110   */\n      tag_205\n        /* \"#utility.yul\":3104:3109   */\n      dup2\n        /* \"#utility.yul\":3086:3110   */\n      tag_130\n      jump\t// in\n    tag_205:\n        /* \"#utility.yul\":3081:3084   */\n      dup3\n        /* \"#utility.yul\":3074:3111   */\n      mstore\n        /* \"#utility.yul\":2999:3117   */\n      pop\n      pop\n      jump\t// out\n        /* \"#utility.yul\":3123:3345   */\n    tag_32:\n        /* \"#utility.yul\":3216:3220   */\n      0x00\n        /* \"#utility.yul\":3254:3256   */\n      0x20\n        /* \"#utility.yul\":3243:3252   */\n      dup3\n        /* \"#utility.yul\":3239:3257   */\n      add\n        /* \"#utility.yul\":3231:3257   */\n      swap1\n      pop\n        /* \"#utility.yul\":3267:3338   */\n      tag_207\n        /* \"#utility.yul\":3335:3336   */\n      0x00\n        /* \"#utility.yul\":3324:3333   */\n      dup4\n        /* \"#utility.yul\":3320:3337   */\n      add\n        /* \"#utility.yul\":3311:3317   */\n      dup5\n        /* \"#utility.yul\":3267:3338   */\n      tag_131\n      jump\t// in\n    tag_207:\n        /* \"#utility.yul\":3123:3345   */\n      swap3\n      swap2\n      pop\n      pop\n      jump\t// out\n        /* \"#utility.yul\":3351:3493   */\n    tag_132:\n        /* \"#utility.yul\":3454:3486   */\n      tag_209\n        /* \"#utility.yul\":3480:3485   */\n      dup2\n        /* \"#utility.yul\":3454:3486   */\n      tag_125\n      jump\t// in\n    tag_209:\n        /* \"#utility.yul\":3449:3452   */\n      dup3\n        /* \"#utility.yul\":3442:3487   */\n      mstore\n        /* \"#utility.yul\":3351:3493   */\n      pop\n      pop\n      jump\t// out\n        /* \"#utility.yul\":3499:3753   */\n    tag_37:\n        /* \"#utility.yul\":3608:3612   */\n      0x00\n        /* \"#utility.yul\":3646:3648   */\n      0x20\n        /* \"#utility.yul\":3635:3644   */\n      dup3\n        /* \"#utility.yul\":3631:3649   */\n      add\n        /* \"#utility.yul\":3623:3649   */\n      swap1\n      pop\n        /* \"#utility.yul\":3659:3746   */\n      tag_211\n        /* \"#utility.yul\":3743:3744   */\n      0x00\n        /* \"#utility.yul\":3732:3741   */\n      dup4\n        /* \"#utility.yul\":3728:3745   */\n      add\n        /* \"#utility.yul\":3719:3725   */\n      dup5\n        /* \"#utility.yul\":3659:3746   */\n      tag_132\n      jump\t// in\n    tag_211:\n        /* \"#utility.yul\":3499:3753   */\n      swap3\n      swap2\n      pop\n      pop\n      jump\t// out\n        /* \"#utility.yul\":3840:3957   */\n    tag_134:\n        /* \"#utility.yul\":3949:3950   */\n      0x00\n        /* \"#utility.yul\":3946:3947   */\n      dup1\n        /* \"#utility.yul\":3939:3951   */\n      revert\n        /* \"#utility.yul\":4086:4208   */\n    tag_136:\n        /* \"#utility.yul\":4159:4183   */\n      tag_216\n        /* \"#utility.yul\":4177:4182   */\n      dup2\n        /* \"#utility.yul\":4159:4183   */\n      tag_130\n      jump\t// in\n    tag_216:\n        /* \"#utility.yul\":4152:4157   */\n      dup2\n        /* \"#utility.yul\":4149:4184   */\n      eq\n        /* \"#utility.yul\":4139:4202   */\n      tag_217\n      jumpi\n        /* \"#utility.yul\":4198:4199   */\n      0x00\n        /* \"#utility.yul\":4195:4196   */\n      dup1\n        /* \"#utility.yul\":4188:4200   */\n      revert\n        /* \"#utility.yul\":4139:4202   */\n    tag_217:\n        /* \"#utility.yul\":4086:4208   */\n      pop\n      jump\t// out\n        /* \"#utility.yul\":4214:4353   */\n    tag_137:\n        /* \"#utility.yul\":4260:4265   */\n      0x00\n        /* \"#utility.yul\":4298:4304   */\n      dup2\n        /* \"#utility.yul\":4285:4305   */\n      calldataload\n        /* \"#utility.yul\":4276:4305   */\n      swap1\n      pop\n        /* \"#utility.yul\":4314:4347   */\n      tag_219\n        /* \"#utility.yul\":4341:4346   */\n      dup2\n        /* \"#utility.yul\":4314:4347   */\n      tag_136\n      jump\t// in\n    tag_219:\n        /* \"#utility.yul\":4214:4353   */\n      swap3\n      swap2\n      pop\n      pop\n      jump\t// out\n        /* \"#utility.yul\":4359:4688   */\n    tag_41:\n        /* \"#utility.yul\":4418:4424   */\n      0x00\n        /* \"#utility.yul\":4467:4469   */\n      0x20\n        /* \"#utility.yul\":4455:4464   */\n      dup3\n        /* \"#utility.yul\":4446:4453   */\n      dup5\n        /* \"#utility.yul\":4442:4465   */\n      sub\n        /* \"#utility.yul\":4438:4470   */\n      slt\n        /* \"#utility.yul\":4435:4554   */\n      iszero\n      tag_221\n      jumpi\n        /* \"#utility.yul\":4473:4552   */\n      tag_222\n      tag_134\n      jump\t// in\n    tag_222:\n        /* \"#utility.yul\":4435:4554   */\n    tag_221:\n        /* \"#utility.yul\":4593:4594   */\n      0x00\n        /* \"#utility.yul\":4618:4671   */\n      tag_223\n        /* \"#utility.yul\":4663:4670   */\n      dup5\n        /* \"#utility.yul\":4654:4660   */\n      dup3\n        /* \"#utility.yul\":4643:4652   */\n      dup6\n        /* \"#utility.yul\":4639:4661   */\n      add\n        /* \"#utility.yul\":4618:4671   */\n      tag_137\n      jump\t// in\n    tag_223:\n        /* \"#utility.yul\":4608:4671   */\n      swap2\n      pop\n        /* \"#utility.yul\":4564:4681   */\n      pop\n        /* \"#utility.yul\":4359:4688   */\n      swap3\n      swap2\n      pop\n      pop\n      jump\t// out\n        /* \"#utility.yul\":4694:4863   */\n    tag_138:\n        /* \"#utility.yul\":4778:4789   */\n      0x00\n        /* \"#utility.yul\":4812:4818   */\n      dup3\n        /* \"#utility.yul\":4807:4810   */\n      dup3\n        /* \"#utility.yul\":4800:4819   */\n      mstore\n        /* \"#utility.yul\":4852:4856   */\n      0x20\n        /* \"#utility.yul\":4847:4850   */\n      dup3\n        /* \"#utility.yul\":4843:4857   */\n      add\n        /* \"#utility.yul\":4828:4857   */\n      swap1\n      pop\n        /* \"#utility.yul\":4694:4863   */\n      swap3\n      swap2\n      pop\n      pop\n      jump\t// out\n        /* \"#utility.yul\":4869:5043   */\n    tag_139:\n        /* \"#utility.yul\":5009:5035   */\n      0x4d616e616765727320617265206e6f7420616c6c6f7765640000000000000000\n        /* \"#utility.yul\":5005:5006   */\n      0x00\n        /* \"#utility.yul\":4997:5003   */\n      dup3\n        /* \"#utility.yul\":4993:5007   */\n      add\n        /* \"#utility.yul\":4986:5036   */\n      mstore\n        /* \"#utility.yul\":4869:5043   */\n      pop\n      jump\t// out\n        /* \"#utility.yul\":5049:5415   */\n    tag_140:\n        /* \"#utility.yul\":5191:5194   */\n      0x00\n        /* \"#utility.yul\":5212:5279   */\n      tag_227\n        /* \"#utility.yul\":5276:5278   */\n      0x18\n        /* \"#utility.yul\":5271:5274   */\n      dup4\n        /* \"#utility.yul\":5212:5279   */\n      tag_138\n      jump\t// in\n    tag_227:\n        /* \"#utility.yul\":5205:5279   */\n      swap2\n      pop\n        /* \"#utility.yul\":5288:5381   */\n      tag_228\n        /* \"#utility.yul\":5377:5380   */\n      dup3\n        /* \"#utility.yul\":5288:5381   */\n      tag_139\n      jump\t// in\n    tag_228:\n        /* \"#utility.yul\":5406:5408   */\n      0x20\n        /* \"#utility.yul\":5401:5404   */\n      dup3\n        /* \"#utility.yul\":5397:5409   */\n      add\n        /* \"#utility.yul\":5390:5409   */\n      swap1\n      pop\n        /* \"#utility.yul\":5049:5415   */\n      swap2\n      swap1\n      pop\n      jump\t// out\n        /* \"#utility.yul\":5421:5840   */\n    tag_47:\n        /* \"#utility.yul\":5587:5591   */\n      0x00\n        /* \"#utility.yul\":5625:5627   */\n      0x20\n        /* \"#utility.yul\":5614:5623   */\n      dup3\n        /* \"#utility.yul\":5610:5628   */\n      add\n        /* \"#utility.yul\":5602:5628   */\n      swap1\n      pop\n        /* \"#utility.yul\":5674:5683   */\n      dup2\n        /* \"#utility.yul\":5668:5672   */\n      dup2\n        /* \"#utility.yul\":5664:5684   */\n      sub\n        /* \"#utility.yul\":5660:5661   */\n      0x00\n        /* \"#utility.yul\":5649:5658   */\n      dup4\n        /* \"#utility.yul\":5645:5662   */\n      add\n        /* \"#utility.yul\":5638:5685   */\n      mstore\n        /* \"#utility.yul\":5702:5833   */\n      tag_230\n        /* \"#utility.yul\":5828:5832   */\n      dup2\n        /* \"#utility.yul\":5702:5833   */\n      tag_140\n      jump\t// in\n    tag_230:\n        /* \"#utility.yul\":5694:5833   */\n      swap1\n      pop\n        /* \"#utility.yul\":5421:5840   */\n      swap2\n      swap1\n      pop\n      jump\t// out\n        /* \"#utility.yul\":5846:6018   */\n    tag_141:\n        /* \"#utility.yul\":5986:6010   */\n      0x596f7520616c7265616479207265676973746572656400000000000000000000\n        /* \"#utility.yul\":5982:5983   */\n      0x00\n        /* \"#utility.yul\":5974:5980   */\n      dup3\n        /* \"#utility.yul\":5970:5984   */\n      add\n        /* \"#utility.yul\":5963:6011   */\n      mstore\n        /* \"#utility.yul\":5846:6018   */\n      pop\n      jump\t// out\n        /* \"#utility.yul\":6024:6390   */\n    tag_142:\n        /* \"#utility.yul\":6166:6169   */\n      0x00\n        /* \"#utility.yul\":6187:6254   */\n      tag_233\n        /* \"#utility.yul\":6251:6253   */\n      0x16\n        /* \"#utility.yul\":6246:6249   */\n      dup4\n        /* \"#utility.yul\":6187:6254   */\n      tag_138\n      jump\t// in\n    tag_233:\n        /* \"#utility.yul\":6180:6254   */\n      swap2\n      pop\n        /* \"#utility.yul\":6263:6356   */\n      tag_234\n        /* \"#utility.yul\":6352:6355   */\n      dup3\n        /* \"#utility.yul\":6263:6356   */\n      tag_141\n      jump\t// in\n    tag_234:\n        /* \"#utility.yul\":6381:6383   */\n      0x20\n        /* \"#utility.yul\":6376:6379   */\n      dup3\n        /* \"#utility.yul\":6372:6384   */\n      add\n        /* \"#utility.yul\":6365:6384   */\n      swap1\n      pop\n        /* \"#utility.yul\":6024:6390   */\n      swap2\n      swap1\n      pop\n      jump\t// out\n        /* \"#utility.yul\":6396:6815   */\n    tag_52:\n        /* \"#utility.yul\":6562:6566   */\n      0x00\n        /* \"#utility.yul\":6600:6602   */\n      0x20\n        /* \"#utility.yul\":6589:6598   */\n      dup3\n        /* \"#utility.yul\":6585:6603   */\n      add\n        /* \"#utility.yul\":6577:6603   */\n      swap1\n      pop\n        /* \"#utility.yul\":6649:6658   */\n      dup2\n        /* \"#utility.yul\":6643:6647   */\n      dup2\n        /* \"#utility.yul\":6639:6659   */\n      sub\n        /* \"#utility.yul\":6635:6636   */\n      0x00\n        /* \"#utility.yul\":6624:6633   */\n      dup4\n        /* \"#utility.yul\":6620:6637   */\n      add\n        /* \"#utility.yul\":6613:6660   */\n      mstore\n        /* \"#utility.yul\":6677:6808   */\n      tag_236\n        /* \"#utility.yul\":6803:6807   */\n      dup2\n        /* \"#utility.yul\":6677:6808   */\n      tag_142\n      jump\t// in\n    tag_236:\n        /* \"#utility.yul\":6669:6808   */\n      swap1\n      pop\n        /* \"#utility.yul\":6396:6815   */\n      swap2\n      swap1\n      pop\n      jump\t// out\n        /* \"#utility.yul\":6821:6997   */\n    tag_143:\n        /* \"#utility.yul\":6961:6989   */\n      0x4d696e696d756d207061796d656e742069732031204574686572000000000000\n        /* \"#utility.yul\":6957:6958   */\n      0x00\n        /* \"#utility.yul\":6949:6955   */\n      dup3\n        /* \"#utility.yul\":6945:6959   */\n      add\n        /* \"#utility.yul\":6938:6990   */\n      mstore\n        /* \"#utility.yul\":6821:6997   */\n      pop\n      jump\t// out\n        /* \"#utility.yul\":7003:7369   */\n    tag_144:\n        /* \"#utility.yul\":7145:7148   */\n      0x00\n        /* \"#utility.yul\":7166:7233   */\n      tag_239\n        /* \"#utility.yul\":7230:7232   */\n      0x1a\n        /* \"#utility.yul\":7225:7228   */\n      dup4\n        /* \"#utility.yul\":7166:7233   */\n      tag_138\n      jump\t// in\n    tag_239:\n        /* \"#utility.yul\":7159:7233   */\n      swap2\n      pop\n        /* \"#utility.yul\":7242:7335   */\n      tag_240\n        /* \"#utility.yul\":7331:7334   */\n      dup3\n        /* \"#utility.yul\":7242:7335   */\n      tag_143\n      jump\t// in\n    tag_240:\n        /* \"#utility.yul\":7360:7362   */\n      0x20\n        /* \"#utility.yul\":7355:7358   */\n      dup3\n        /* \"#utility.yul\":7351:7363   */\n      add\n        /* \"#utility.yul\":7344:7363   */\n      swap1\n      pop\n        /* \"#utility.yul\":7003:7369   */\n      swap2\n      swap1\n      pop\n      jump\t// out\n        /* \"#utility.yul\":7375:7794   */\n    tag_55:\n        /* \"#utility.yul\":7541:7545   */\n      0x00\n        /* \"#utility.yul\":7579:7581   */\n      0x20\n        /* \"#utility.yul\":7568:7577   */\n      dup3\n        /* \"#utility.yul\":7564:7582   */\n      add\n        /* \"#utility.yul\":7556:7582   */\n      swap1\n      pop\n        /* \"#utility.yul\":7628:7637   */\n      dup2\n        /* \"#utility.yul\":7622:7626   */\n      dup2\n        /* \"#utility.yul\":7618:7638   */\n      sub\n        /* \"#utility.yul\":7614:7615   */\n      0x00\n        /* \"#utility.yul\":7603:7612   */\n      dup4\n        /* \"#utility.yul\":7599:7616   */\n      add\n        /* \"#utility.yul\":7592:7639   */\n      mstore\n        /* \"#utility.yul\":7656:7787   */\n      tag_242\n        /* \"#utility.yul\":7782:7786   */\n      dup2\n        /* \"#utility.yul\":7656:7787   */\n      tag_144\n      jump\t// in\n    tag_242:\n        /* \"#utility.yul\":7648:7787   */\n      swap1\n      pop\n        /* \"#utility.yul\":7375:7794   */\n      swap2\n      swap1\n      pop\n      jump\t// out\n        /* \"#utility.yul\":7800:8021   */\n    tag_145:\n        /* \"#utility.yul\":7940:7974   */\n      0x4f6e6c79206d616e616765722063616e20726573657420746865204c6f747465\n        /* \"#utility.yul\":7936:7937   */\n      0x00\n        /* \"#utility.yul\":7928:7934   */\n      dup3\n        /* \"#utility.yul\":7924:7938   */\n      add\n        /* \"#utility.yul\":7917:7975   */\n      mstore\n        /* \"#utility.yul\":8009:8013   */\n      0x7279000000000000000000000000000000000000000000000000000000000000\n        /* \"#utility.yul\":8004:8006   */\n      0x20\n        /* \"#utility.yul\":7996:8002   */\n      dup3\n        /* \"#utility.yul\":7992:8007   */\n      add\n        /* \"#utility.yul\":7985:8014   */\n      mstore\n        /* \"#utility.yul\":7800:8021   */\n      pop\n      jump\t// out\n        /* \"#utility.yul\":8027:8393   */\n    tag_146:\n        /* \"#utility.yul\":8169:8172   */\n      0x00\n        /* \"#utility.yul\":8190:8257   */\n      tag_245\n        /* \"#utility.yul\":8254:8256   */\n      0x22\n        /* \"#utility.yul\":8249:8252   */\n      dup4\n        /* \"#utility.yul\":8190:8257   */\n      tag_138\n      jump\t// in\n    tag_245:\n        /* \"#utility.yul\":8183:8257   */\n      swap2\n      pop\n        /* \"#utility.yul\":8266:8359   */\n      tag_246\n        /* \"#utility.yul\":8355:8358   */\n      dup3\n        /* \"#utility.yul\":8266:8359   */\n      tag_145\n      jump\t// in\n    tag_246:\n        /* \"#utility.yul\":8384:8386   */\n      0x40\n        /* \"#utility.yul\":8379:8382   */\n      dup3\n        /* \"#utility.yul\":8375:8387   */\n      add\n        /* \"#utility.yul\":8368:8387   */\n      swap1\n      pop\n        /* \"#utility.yul\":8027:8393   */\n      swap2\n      swap1\n      pop\n      jump\t// out\n        /* \"#utility.yul\":8399:8818   */\n    tag_67:\n        /* \"#utility.yul\":8565:8569   */\n      0x00\n        /* \"#utility.yul\":8603:8605   */\n      0x20\n        /* \"#utility.yul\":8592:8601   */\n      dup3\n        /* \"#utility.yul\":8588:8606   */\n      add\n        /* \"#utility.yul\":8580:8606   */\n      swap1\n      pop\n        /* \"#utility.yul\":8652:8661   */\n      dup2\n        /* \"#utility.yul\":8646:8650   */\n      dup2\n        /* \"#utility.yul\":8642:8662   */\n      sub\n        /* \"#utility.yul\":8638:8639   */\n      0x00\n        /* \"#utility.yul\":8627:8636   */\n      dup4\n        /* \"#utility.yul\":8623:8640   */\n      add\n        /* \"#utility.yul\":8616:8663   */\n      mstore\n        /* \"#utility.yul\":8680:8811   */\n      tag_248\n        /* \"#utility.yul\":8806:8810   */\n      dup2\n        /* \"#utility.yul\":8680:8811   */\n      tag_146\n      jump\t// in\n    tag_248:\n        /* \"#utility.yul\":8672:8811   */\n      swap1\n      pop\n        /* \"#utility.yul\":8399:8818   */\n      swap2\n      swap1\n      pop\n      jump\t// out\n        /* \"#utility.yul\":8824:9049   */\n    tag_147:\n        /* \"#utility.yul\":8964:8998   */\n      0x43757272656e74204c6f74746572792077696e6e6572206973206e6f74206465\n        /* \"#utility.yul\":8960:8961   */\n      0x00\n        /* \"#utility.yul\":8952:8958   */\n      dup3\n        /* \"#utility.yul\":8948:8962   */\n      add\n        /* \"#utility.yul\":8941:8999   */\n      mstore\n        /* \"#utility.yul\":9033:9041   */\n      0x636c617265640000000000000000000000000000000000000000000000000000\n        /* \"#utility.yul\":9028:9030   */\n      0x20\n        /* \"#utility.yul\":9020:9026   */\n      dup3\n        /* \"#utility.yul\":9016:9031   */\n      add\n        /* \"#utility.yul\":9009:9042   */\n      mstore\n        /* \"#utility.yul\":8824:9049   */\n      pop\n      jump\t// out\n        /* \"#utility.yul\":9055:9421   */\n    tag_148:\n        /* \"#utility.yul\":9197:9200   */\n      0x00\n        /* \"#utility.yul\":9218:9285   */\n      tag_251\n        /* \"#utility.yul\":9282:9284   */\n      0x26\n        /* \"#utility.yul\":9277:9280   */\n      dup4\n        /* \"#utility.yul\":9218:9285   */\n      tag_138\n      jump\t// in\n    tag_251:\n        /* \"#utility.yul\":9211:9285   */\n      swap2\n      pop\n        /* \"#utility.yul\":9294:9387   */\n      tag_252\n        /* \"#utility.yul\":9383:9386   */\n      dup3\n        /* \"#utility.yul\":9294:9387   */\n      tag_147\n      jump\t// in\n    tag_252:\n        /* \"#utility.yul\":9412:9414   */\n      0x40\n        /* \"#utility.yul\":9407:9410   */\n      dup3\n        /* \"#utility.yul\":9403:9415   */\n      add\n        /* \"#utility.yul\":9396:9415   */\n      swap1\n      pop\n        /* \"#utility.yul\":9055:9421   */\n      swap2\n      swap1\n      pop\n      jump\t// out\n        /* \"#utility.yul\":9427:9846   */\n    tag_70:\n        /* \"#utility.yul\":9593:9597   */\n      0x00\n        /* \"#utility.yul\":9631:9633   */\n      0x20\n        /* \"#utility.yul\":9620:9629   */\n      dup3\n        /* \"#utility.yul\":9616:9634   */\n      add\n        /* \"#utility.yul\":9608:9634   */\n      swap1\n      pop\n        /* \"#utility.yul\":9680:9689   */\n      dup2\n        /* \"#utility.yul\":9674:9678   */\n      dup2\n        /* \"#utility.yul\":9670:9690   */\n      sub\n        /* \"#utility.yul\":9666:9667   */\n      0x00\n        /* \"#utility.yul\":9655:9664   */\n      dup4\n        /* \"#utility.yul\":9651:9668   */\n      add\n        /* \"#utility.yul\":9644:9691   */\n      mstore\n        /* \"#utility.yul\":9708:9839   */\n      tag_254\n        /* \"#utility.yul\":9834:9838   */\n      dup2\n        /* \"#utility.yul\":9708:9839   */\n      tag_148\n      jump\t// in\n    tag_254:\n        /* \"#utility.yul\":9700:9839   */\n      swap1\n      pop\n        /* \"#utility.yul\":9427:9846   */\n      swap2\n      swap1\n      pop\n      jump\t// out\n        /* \"#utility.yul\":9852:10032   */\n    tag_73:\n        /* \"#utility.yul\":9900:9977   */\n      0x4e487b7100000000000000000000000000000000000000000000000000000000\n        /* \"#utility.yul\":9897:9898   */\n      0x00\n        /* \"#utility.yul\":9890:9978   */\n      mstore\n        /* \"#utility.yul\":9997:10001   */\n      0x41\n        /* \"#utility.yul\":9994:9995   */\n      0x04\n        /* \"#utility.yul\":9987:10002   */\n      mstore\n        /* \"#utility.yul\":10021:10025   */\n      0x24\n        /* \"#utility.yul\":10018:10019   */\n      0x00\n        /* \"#utility.yul\":10011:10026   */\n      revert\n        /* \"#utility.yul\":10038:10280   */\n    tag_149:\n        /* \"#utility.yul\":10178:10212   */\n      0x4d696e696d756d2074776f20706c6179657273206861766520746f2072656769\n        /* \"#utility.yul\":10174:10175   */\n      0x00\n        /* \"#utility.yul\":10166:10172   */\n      dup3\n        /* \"#utility.yul\":10162:10176   */\n      add\n        /* \"#utility.yul\":10155:10213   */\n      mstore\n        /* \"#utility.yul\":10247:10272   */\n      0x7374657220746f2073656c65637420612077696e6e6572000000000000000000\n        /* \"#utility.yul\":10242:10244   */\n      0x20\n        /* \"#utility.yul\":10234:10240   */\n      dup3\n        /* \"#utility.yul\":10230:10245   */\n      add\n        /* \"#utility.yul\":10223:10273   */\n      mstore\n        /* \"#utility.yul\":10038:10280   */\n      pop\n      jump\t// out\n        /* \"#utility.yul\":10286:10652   */\n    tag_150:\n        /* \"#utility.yul\":10428:10431   */\n      0x00\n        /* \"#utility.yul\":10449:10516   */\n      tag_258\n        /* \"#utility.yul\":10513:10515   */\n      0x37\n        /* \"#utility.yul\":10508:10511   */\n      dup4\n        /* \"#utility.yul\":10449:10516   */\n      tag_138\n      jump\t// in\n    tag_258:\n        /* \"#utility.yul\":10442:10516   */\n      swap2\n      pop\n        /* \"#utility.yul\":10525:10618   */\n      tag_259\n        /* \"#utility.yul\":10614:10617   */\n      dup3\n        /* \"#utility.yul\":10525:10618   */\n      tag_149\n      jump\t// in\n    tag_259:\n        /* \"#utility.yul\":10643:10645   */\n      0x40\n        /* \"#utility.yul\":10638:10641   */\n      dup3\n        /* \"#utility.yul\":10634:10646   */\n      add\n        /* \"#utility.yul\":10627:10646   */\n      swap1\n      pop\n        /* \"#utility.yul\":10286:10652   */\n      swap2\n      swap1\n      pop\n      jump\t// out\n        /* \"#utility.yul\":10658:11077   */\n    tag_81:\n        /* \"#utility.yul\":10824:10828   */\n      0x00\n        /* \"#utility.yul\":10862:10864   */\n      0x20\n        /* \"#utility.yul\":10851:10860   */\n      dup3\n        /* \"#utility.yul\":10847:10865   */\n      add\n        /* \"#utility.yul\":10839:10865   */\n      swap1\n      pop\n        /* \"#utility.yul\":10911:10920   */\n      dup2\n        /* \"#utility.yul\":10905:10909   */\n      dup2\n        /* \"#utility.yul\":10901:10921   */\n      sub\n        /* \"#utility.yul\":10897:10898   */\n      0x00\n        /* \"#utility.yul\":10886:10895   */\n      dup4\n        /* \"#utility.yul\":10882:10899   */\n      add\n        /* \"#utility.yul\":10875:10922   */\n      mstore\n        /* \"#utility.yul\":10939:11070   */\n      tag_261\n        /* \"#utility.yul\":11065:11069   */\n      dup2\n        /* \"#utility.yul\":10939:11070   */\n      tag_150\n      jump\t// in\n    tag_261:\n        /* \"#utility.yul\":10931:11070   */\n      swap1\n      pop\n        /* \"#utility.yul\":10658:11077   */\n      swap2\n      swap1\n      pop\n      jump\t// out\n        /* \"#utility.yul\":11083:11261   */\n    tag_151:\n        /* \"#utility.yul\":11223:11253   */\n      0x4f6e6c79204d616e616765722063616e20616363657373207468697300000000\n        /* \"#utility.yul\":11219:11220   */\n      0x00\n        /* \"#utility.yul\":11211:11217   */\n      dup3\n        /* \"#utility.yul\":11207:11221   */\n      add\n        /* \"#utility.yul\":11200:11254   */\n      mstore\n        /* \"#utility.yul\":11083:11261   */\n      pop\n      jump\t// out\n        /* \"#utility.yul\":11267:11633   */\n    tag_152:\n        /* \"#utility.yul\":11409:11412   */\n      0x00\n        /* \"#utility.yul\":11430:11497   */\n      tag_264\n        /* \"#utility.yul\":11494:11496   */\n      0x1c\n        /* \"#utility.yul\":11489:11492   */\n      dup4\n        /* \"#utility.yul\":11430:11497   */\n      tag_138\n      jump\t// in\n    tag_264:\n        /* \"#utility.yul\":11423:11497   */\n      swap2\n      pop\n        /* \"#utility.yul\":11506:11599   */\n      tag_265\n        /* \"#utility.yul\":11595:11598   */\n      dup3\n        /* \"#utility.yul\":11506:11599   */\n      tag_151\n      jump\t// in\n    tag_265:\n        /* \"#utility.yul\":11624:11626   */\n      0x20\n        /* \"#utility.yul\":11619:11622   */\n      dup3\n        /* \"#utility.yul\":11615:11627   */\n      add\n        /* \"#utility.yul\":11608:11627   */\n      swap1\n      pop\n        /* \"#utility.yul\":11267:11633   */\n      swap2\n      swap1\n      pop\n      jump\t// out\n        /* \"#utility.yul\":11639:12058   */\n    tag_84:\n        /* \"#utility.yul\":11805:11809   */\n      0x00\n        /* \"#utility.yul\":11843:11845   */\n      0x20\n        /* \"#utility.yul\":11832:11841   */\n      dup3\n        /* \"#utility.yul\":11828:11846   */\n      add\n        /* \"#utility.yul\":11820:11846   */\n      swap1\n      pop\n        /* \"#utility.yul\":11892:11901   */\n      dup2\n        /* \"#utility.yul\":11886:11890   */\n      dup2\n        /* \"#utility.yul\":11882:11902   */\n      sub\n        /* \"#utility.yul\":11878:11879   */\n      0x00\n        /* \"#utility.yul\":11867:11876   */\n      dup4\n        /* \"#utility.yul\":11863:11880   */\n      add\n        /* \"#utility.yul\":11856:11903   */\n      mstore\n        /* \"#utility.yul\":11920:12051   */\n      tag_267\n        /* \"#utility.yul\":12046:12050   */\n      dup2\n        /* \"#utility.yul\":11920:12051   */\n      tag_152\n      jump\t// in\n    tag_267:\n        /* \"#utility.yul\":11912:12051   */\n      swap1\n      pop\n        /* \"#utility.yul\":11639:12058   */\n      swap2\n      swap1\n      pop\n      jump\t// out\n        /* \"#utility.yul\":12064:12244   */\n    tag_153:\n        /* \"#utility.yul\":12112:12189   */\n      0x4e487b7100000000000000000000000000000000000000000000000000000000\n        /* \"#utility.yul\":12109:12110   */\n      0x00\n        /* \"#utility.yul\":12102:12190   */\n      mstore\n        /* \"#utility.yul\":12209:12213   */\n      0x12\n        /* \"#utility.yul\":12206:12207   */\n      0x04\n        /* \"#utility.yul\":12199:12214   */\n      mstore\n        /* \"#utility.yul\":12233:12237   */\n      0x24\n        /* \"#utility.yul\":12230:12231   */\n      0x00\n        /* \"#utility.yul\":12223:12238   */\n      revert\n        /* \"#utility.yul\":12250:12426   */\n    tag_88:\n        /* \"#utility.yul\":12282:12283   */\n      0x00\n        /* \"#utility.yul\":12299:12319   */\n      tag_270\n        /* \"#utility.yul\":12317:12318   */\n      dup3\n        /* \"#utility.yul\":12299:12319   */\n      tag_130\n      jump\t// in\n    tag_270:\n        /* \"#utility.yul\":12294:12319   */\n      swap2\n      pop\n        /* \"#utility.yul\":12333:12353   */\n      tag_271\n        /* \"#utility.yul\":12351:12352   */\n      dup4\n        /* \"#utility.yul\":12333:12353   */\n      tag_130\n      jump\t// in\n    tag_271:\n        /* \"#utility.yul\":12328:12353   */\n      swap3\n      pop\n        /* \"#utility.yul\":12372:12373   */\n      dup3\n        /* \"#utility.yul\":12362:12397   */\n      tag_272\n      jumpi\n        /* \"#utility.yul\":12377:12395   */\n      tag_273\n      tag_153\n      jump\t// in\n    tag_273:\n        /* \"#utility.yul\":12362:12397   */\n    tag_272:\n        /* \"#utility.yul\":12418:12419   */\n      dup3\n        /* \"#utility.yul\":12415:12416   */\n      dup3\n        /* \"#utility.yul\":12411:12420   */\n      mod\n        /* \"#utility.yul\":12406:12420   */\n      swap1\n      pop\n        /* \"#utility.yul\":12250:12426   */\n      swap3\n      swap2\n      pop\n      pop\n      jump\t// out\n        /* \"#utility.yul\":12432:12612   */\n    tag_91:\n        /* \"#utility.yul\":12480:12557   */\n      0x4e487b7100000000000000000000000000000000000000000000000000000000\n        /* \"#utility.yul\":12477:12478   */\n      0x00\n        /* \"#utility.yul\":12470:12558   */\n      mstore\n        /* \"#utility.yul\":12577:12581   */\n      0x32\n        /* \"#utility.yul\":12574:12575   */\n      0x04\n        /* \"#utility.yul\":12567:12582   */\n      mstore\n        /* \"#utility.yul\":12601:12605   */\n      0x24\n        /* \"#utility.yul\":12598:12599   */\n      0x00\n        /* \"#utility.yul\":12591:12606   */\n      revert\n        /* \"#utility.yul\":12618:12697   */\n    tag_154:\n        /* \"#utility.yul\":12657:12664   */\n      0x00\n        /* \"#utility.yul\":12686:12691   */\n      dup2\n        /* \"#utility.yul\":12675:12691   */\n      swap1\n      pop\n        /* \"#utility.yul\":12618:12697   */\n      swap2\n      swap1\n      pop\n      jump\t// out\n        /* \"#utility.yul\":12703:12860   */\n    tag_155:\n        /* \"#utility.yul\":12808:12853   */\n      tag_277\n        /* \"#utility.yul\":12828:12852   */\n      tag_278\n        /* \"#utility.yul\":12846:12851   */\n      dup3\n        /* \"#utility.yul\":12828:12852   */\n      tag_130\n      jump\t// in\n    tag_278:\n        /* \"#utility.yul\":12808:12853   */\n      tag_154\n      jump\t// in\n    tag_277:\n        /* \"#utility.yul\":12803:12806   */\n      dup3\n        /* \"#utility.yul\":12796:12854   */\n      mstore\n        /* \"#utility.yul\":12703:12860   */\n      pop\n      pop\n      jump\t// out\n        /* \"#utility.yul\":12866:12985   */\n    tag_156:\n        /* \"#utility.yul\":12938:12944   */\n      0x00\n        /* \"#utility.yul\":12972:12977   */\n      dup2\n        /* \"#utility.yul\":12966:12978   */\n      sload\n        /* \"#utility.yul\":12956:12978   */\n      swap1\n      pop\n        /* \"#utility.yul\":12866:12985   */\n      swap2\n      swap1\n      pop\n      jump\t// out\n        /* \"#utility.yul\":12991:13162   */\n    tag_157:\n        /* \"#utility.yul\":13116:13127   */\n      0x00\n        /* \"#utility.yul\":13153:13156   */\n      dup2\n        /* \"#utility.yul\":13138:13156   */\n      swap1\n      pop\n        /* \"#utility.yul\":12991:13162   */\n      swap3\n      swap2\n      pop\n      pop\n      jump\t// out\n        /* \"#utility.yul\":13168:13332   */\n    tag_158:\n        /* \"#utility.yul\":13240:13244   */\n      0x00\n        /* \"#utility.yul\":13263:13266   */\n      dup2\n        /* \"#utility.yul\":13255:13266   */\n      swap1\n      pop\n        /* \"#utility.yul\":13286:13289   */\n      dup2\n        /* \"#utility.yul\":13283:13284   */\n      0x00\n        /* \"#utility.yul\":13276:13290   */\n      mstore\n        /* \"#utility.yul\":13320:13324   */\n      0x20\n        /* \"#utility.yul\":13317:13318   */\n      0x00\n        /* \"#utility.yul\":13307:13325   */\n      keccak256\n        /* \"#utility.yul\":13299:13325   */\n      swap1\n      pop\n        /* \"#utility.yul\":13168:13332   */\n      swap2\n      swap1\n      pop\n      jump\t// out\n        /* \"#utility.yul\":13338:13478   */\n    tag_159:\n        /* \"#utility.yul\":13439:13471   */\n      tag_283\n        /* \"#utility.yul\":13465:13470   */\n      dup2\n        /* \"#utility.yul\":13439:13471   */\n      tag_125\n      jump\t// in\n    tag_283:\n        /* \"#utility.yul\":13434:13437   */\n      dup3\n        /* \"#utility.yul\":13427:13472   */\n      mstore\n        /* \"#utility.yul\":13338:13478   */\n      pop\n      pop\n      jump\t// out\n        /* \"#utility.yul\":13484:13711   */\n    tag_160:\n        /* \"#utility.yul\":13577:13587   */\n      0x00\n        /* \"#utility.yul\":13598:13668   */\n      tag_285\n        /* \"#utility.yul\":13664:13667   */\n      dup4\n        /* \"#utility.yul\":13656:13662   */\n      dup4\n        /* \"#utility.yul\":13598:13668   */\n      tag_159\n      jump\t// in\n    tag_285:\n        /* \"#utility.yul\":13700:13704   */\n      0x20\n        /* \"#utility.yul\":13695:13698   */\n      dup4\n        /* \"#utility.yul\":13691:13705   */\n      add\n        /* \"#utility.yul\":13677:13705   */\n      swap1\n      pop\n        /* \"#utility.yul\":13484:13711   */\n      swap3\n      swap2\n      pop\n      pop\n      jump\t// out\n        /* \"#utility.yul\":13717:13819   */\n    tag_161:\n        /* \"#utility.yul\":13759:13767   */\n      0x00\n        /* \"#utility.yul\":13806:13811   */\n      dup2\n        /* \"#utility.yul\":13803:13804   */\n      0x00\n        /* \"#utility.yul\":13799:13812   */\n      shr\n        /* \"#utility.yul\":13778:13812   */\n      swap1\n      pop\n        /* \"#utility.yul\":13717:13819   */\n      swap2\n      swap1\n      pop\n      jump\t// out\n        /* \"#utility.yul\":13825:13972   */\n    tag_162:\n        /* \"#utility.yul\":13883:13890   */\n      0x00\n        /* \"#utility.yul\":13923:13965   */\n      0xffffffffffffffffffffffffffffffffffffffff\n        /* \"#utility.yul\":13916:13921   */\n      dup3\n        /* \"#utility.yul\":13912:13966   */\n      and\n        /* \"#utility.yul\":13901:13966   */\n      swap1\n      pop\n        /* \"#utility.yul\":13825:13972   */\n      swap2\n      swap1\n      pop\n      jump\t// out\n        /* \"#utility.yul\":13978:14160   */\n    tag_163:\n        /* \"#utility.yul\":14055:14060   */\n      0x00\n        /* \"#utility.yul\":14080:14154   */\n      tag_289\n        /* \"#utility.yul\":14119:14153   */\n      tag_290\n        /* \"#utility.yul\":14142:14152   */\n      dup4\n        /* \"#utility.yul\":14119:14153   */\n      tag_161\n      jump\t// in\n    tag_290:\n        /* \"#utility.yul\":14080:14154   */\n      tag_162\n      jump\t// in\n    tag_289:\n        /* \"#utility.yul\":14071:14154   */\n      swap1\n      pop\n        /* \"#utility.yul\":13978:14160   */\n      swap2\n      swap1\n      pop\n      jump\t// out\n        /* \"#utility.yul\":14166:14326   */\n    tag_164:\n        /* \"#utility.yul\":14229:14234   */\n      0x00\n        /* \"#utility.yul\":14254:14319   */\n      tag_292\n        /* \"#utility.yul\":14313:14317   */\n      dup3\n        /* \"#utility.yul\":14307:14318   */\n      sload\n        /* \"#utility.yul\":14254:14319   */\n      tag_163\n      jump\t// in\n    tag_292:\n        /* \"#utility.yul\":14245:14319   */\n      swap1\n      pop\n        /* \"#utility.yul\":14166:14326   */\n      swap2\n      swap1\n      pop\n      jump\t// out\n        /* \"#utility.yul\":14332:14450   */\n    tag_165:\n        /* \"#utility.yul\":14407:14411   */\n      0x00\n        /* \"#utility.yul\":14439:14443   */\n      0x01\n        /* \"#utility.yul\":14434:14437   */\n      dup3\n        /* \"#utility.yul\":14430:14444   */\n      add\n        /* \"#utility.yul\":14422:14444   */\n      swap1\n      pop\n        /* \"#utility.yul\":14332:14450   */\n      swap2\n      swap1\n      pop\n      jump\t// out\n        /* \"#utility.yul\":14502:15369   */\n    tag_166:\n        /* \"#utility.yul\":14652:14655   */\n      0x00\n        /* \"#utility.yul\":14681:14740   */\n      tag_295\n        /* \"#utility.yul\":14734:14739   */\n      dup3\n        /* \"#utility.yul\":14681:14740   */\n      tag_156\n      jump\t// in\n    tag_295:\n        /* \"#utility.yul\":14756:14868   */\n      tag_296\n        /* \"#utility.yul\":14861:14867   */\n      dup2\n        /* \"#utility.yul\":14856:14859   */\n      dup6\n        /* \"#utility.yul\":14756:14868   */\n      tag_157\n      jump\t// in\n    tag_296:\n        /* \"#utility.yul\":14749:14868   */\n      swap4\n      pop\n        /* \"#utility.yul\":14892:14953   */\n      tag_297\n        /* \"#utility.yul\":14947:14952   */\n      dup4\n        /* \"#utility.yul\":14892:14953   */\n      tag_158\n      jump\t// in\n    tag_297:\n        /* \"#utility.yul\":14976:14983   */\n      dup1\n        /* \"#utility.yul\":15007:15008   */\n      0x00\n        /* \"#utility.yul\":14992:15344   */\n    tag_298:\n        /* \"#utility.yul\":15017:15023   */\n      dup4\n        /* \"#utility.yul\":15014:15015   */\n      dup2\n        /* \"#utility.yul\":15011:15024   */\n      lt\n        /* \"#utility.yul\":14992:15344   */\n      iszero\n      tag_300\n      jumpi\n        /* \"#utility.yul\":15087:15139   */\n      tag_301\n        /* \"#utility.yul\":15132:15138   */\n      dup3\n        /* \"#utility.yul\":15087:15139   */\n      tag_164\n      jump\t// in\n    tag_301:\n        /* \"#utility.yul\":15159:15246   */\n      tag_302\n        /* \"#utility.yul\":15242:15245   */\n      dup9\n        /* \"#utility.yul\":15227:15240   */\n      dup3\n        /* \"#utility.yul\":15159:15246   */\n      tag_160\n      jump\t// in\n    tag_302:\n        /* \"#utility.yul\":15152:15246   */\n      swap8\n      pop\n        /* \"#utility.yul\":15269:15334   */\n      tag_303\n        /* \"#utility.yul\":15327:15333   */\n      dup4\n        /* \"#utility.yul\":15269:15334   */\n      tag_165\n      jump\t// in\n    tag_303:\n        /* \"#utility.yul\":15259:15334   */\n      swap3\n      pop\n        /* \"#utility.yul\":15052:15344   */\n      pop\n        /* \"#utility.yul\":15039:15040   */\n      0x01\n        /* \"#utility.yul\":15036:15037   */\n      dup2\n        /* \"#utility.yul\":15032:15041   */\n      add\n        /* \"#utility.yul\":15027:15041   */\n      swap1\n      pop\n        /* \"#utility.yul\":14992:15344   */\n      jump(tag_298)\n    tag_300:\n        /* \"#utility.yul\":14996:15010   */\n      pop\n        /* \"#utility.yul\":15360:15363   */\n      dup6\n        /* \"#utility.yul\":15353:15363   */\n      swap4\n      pop\n        /* \"#utility.yul\":14657:15369   */\n      pop\n      pop\n      pop\n        /* \"#utility.yul\":14502:15369   */\n      swap3\n      swap2\n      pop\n      pop\n      jump\t// out\n        /* \"#utility.yul\":15375:16018   */\n    tag_105:\n        /* \"#utility.yul\":15606:15609   */\n      0x00\n        /* \"#utility.yul\":15621:15696   */\n      tag_305\n        /* \"#utility.yul\":15692:15695   */\n      dup3\n        /* \"#utility.yul\":15683:15689   */\n      dup7\n        /* \"#utility.yul\":15621:15696   */\n      tag_155\n      jump\t// in\n    tag_305:\n        /* \"#utility.yul\":15721:15723   */\n      0x20\n        /* \"#utility.yul\":15716:15719   */\n      dup3\n        /* \"#utility.yul\":15712:15724   */\n      add\n        /* \"#utility.yul\":15705:15724   */\n      swap2\n      pop\n        /* \"#utility.yul\":15734:15809   */\n      tag_306\n        /* \"#utility.yul\":15805:15808   */\n      dup3\n        /* \"#utility.yul\":15796:15802   */\n      dup6\n        /* \"#utility.yul\":15734:15809   */\n      tag_155\n      jump\t// in\n    tag_306:\n        /* \"#utility.yul\":15834:15836   */\n      0x20\n        /* \"#utility.yul\":15829:15832   */\n      dup3\n        /* \"#utility.yul\":15825:15837   */\n      add\n        /* \"#utility.yul\":15818:15837   */\n      swap2\n      pop\n        /* \"#utility.yul\":15854:15992   */\n      tag_307\n        /* \"#utility.yul\":15988:15991   */\n      dup3\n        /* \"#utility.yul\":15979:15985   */\n      dup5\n        /* \"#utility.yul\":15854:15992   */\n      tag_166\n      jump\t// in\n    tag_307:\n        /* \"#utility.yul\":15847:15992   */\n      swap2\n      pop\n        /* \"#utility.yul\":16009:16012   */\n      dup2\n        /* \"#utility.yul\":16002:16012   */\n      swap1\n      pop\n        /* \"#utility.yul\":15375:16018   */\n      swap5\n      swap4\n      pop\n      pop\n      pop\n      pop\n      jump\t// out\n        /* \"#utility.yul\":16024:16122   */\n    tag_167:\n        /* \"#utility.yul\":16075:16081   */\n      0x00\n        /* \"#utility.yul\":16109:16114   */\n      dup2\n        /* \"#utility.yul\":16103:16115   */\n      mload\n        /* \"#utility.yul\":16093:16115   */\n      swap1\n      pop\n        /* \"#utility.yul\":16024:16122   */\n      swap2\n      swap1\n      pop\n      jump\t// out\n        /* \"#utility.yul\":16128:16275   */\n    tag_168:\n        /* \"#utility.yul\":16229:16240   */\n      0x00\n        /* \"#utility.yul\":16266:16269   */\n      dup2\n        /* \"#utility.yul\":16251:16269   */\n      swap1\n      pop\n        /* \"#utility.yul\":16128:16275   */\n      swap3\n      swap2\n      pop\n      pop\n      jump\t// out\n        /* \"#utility.yul\":16281:16527   */\n    tag_169:\n        /* \"#utility.yul\":16362:16363   */\n      0x00\n        /* \"#utility.yul\":16372:16485   */\n    tag_311:\n        /* \"#utility.yul\":16386:16392   */\n      dup4\n        /* \"#utility.yul\":16383:16384   */\n      dup2\n        /* \"#utility.yul\":16380:16393   */\n      lt\n        /* \"#utility.yul\":16372:16485   */\n      iszero\n      tag_313\n      jumpi\n        /* \"#utility.yul\":16471:16472   */\n      dup1\n        /* \"#utility.yul\":16466:16469   */\n      dup3\n        /* \"#utility.yul\":16462:16473   */\n      add\n        /* \"#utility.yul\":16456:16474   */\n      mload\n        /* \"#utility.yul\":16452:16453   */\n      dup2\n        /* \"#utility.yul\":16447:16450   */\n      dup5\n        /* \"#utility.yul\":16443:16454   */\n      add\n        /* \"#utility.yul\":16436:16475   */\n      mstore\n        /* \"#utility.yul\":16408:16410   */\n      0x20\n        /* \"#utility.yul\":16405:16406   */\n      dup2\n        /* \"#utility.yul\":16401:16411   */\n      add\n        /* \"#utility.yul\":16396:16411   */\n      swap1\n      pop\n        /* \"#utility.yul\":16372:16485   */\n      jump(tag_311)\n    tag_313:\n        /* \"#utility.yul\":16519:16520   */\n      0x00\n        /* \"#utility.yul\":16510:16516   */\n      dup5\n        /* \"#utility.yul\":16505:16508   */\n      dup5\n        /* \"#utility.yul\":16501:16517   */\n      add\n        /* \"#utility.yul\":16494:16521   */\n      mstore\n        /* \"#utility.yul\":16343:16527   */\n      pop\n        /* \"#utility.yul\":16281:16527   */\n      pop\n      pop\n      pop\n      jump\t// out\n        /* \"#utility.yul\":16533:16919   */\n    tag_170:\n        /* \"#utility.yul\":16637:16640   */\n      0x00\n        /* \"#utility.yul\":16665:16703   */\n      tag_315\n        /* \"#utility.yul\":16697:16702   */\n      dup3\n        /* \"#utility.yul\":16665:16703   */\n      tag_167\n      jump\t// in\n    tag_315:\n        /* \"#utility.yul\":16719:16807   */\n      tag_316\n        /* \"#utility.yul\":16800:16806   */\n      dup2\n        /* \"#utility.yul\":16795:16798   */\n      dup6\n        /* \"#utility.yul\":16719:16807   */\n      tag_168\n      jump\t// in\n    tag_316:\n        /* \"#utility.yul\":16712:16807   */\n      swap4\n      pop\n        /* \"#utility.yul\":16816:16881   */\n      tag_317\n        /* \"#utility.yul\":16874:16880   */\n      dup2\n        /* \"#utility.yul\":16869:16872   */\n      dup6\n        /* \"#utility.yul\":16862:16866   */\n      0x20\n        /* \"#utility.yul\":16855:16860   */\n      dup7\n        /* \"#utility.yul\":16851:16867   */\n      add\n        /* \"#utility.yul\":16816:16881   */\n      tag_169\n      jump\t// in\n    tag_317:\n        /* \"#utility.yul\":16906:16912   */\n      dup1\n        /* \"#utility.yul\":16901:16904   */\n      dup5\n        /* \"#utility.yul\":16897:16913   */\n      add\n        /* \"#utility.yul\":16890:16913   */\n      swap2\n      pop\n        /* \"#utility.yul\":16641:16919   */\n      pop\n        /* \"#utility.yul\":16533:16919   */\n      swap3\n      swap2\n      pop\n      pop\n      jump\t// out\n        /* \"#utility.yul\":16925:17196   */\n    tag_107:\n        /* \"#utility.yul\":17055:17058   */\n      0x00\n        /* \"#utility.yul\":17077:17170   */\n      tag_319\n        /* \"#utility.yul\":17166:17169   */\n      dup3\n        /* \"#utility.yul\":17157:17163   */\n      dup5\n        /* \"#utility.yul\":17077:17170   */\n      tag_170\n      jump\t// in\n    tag_319:\n        /* \"#utility.yul\":17070:17170   */\n      swap2\n      pop\n        /* \"#utility.yul\":17187:17190   */\n      dup2\n        /* \"#utility.yul\":17180:17190   */\n      swap1\n      pop\n        /* \"#utility.yul\":16925:17196   */\n      swap3\n      swap2\n      pop\n      pop\n      jump\t// out\n        /* \"#utility.yul\":17202:17279   */\n    tag_171:\n        /* \"#utility.yul\":17239:17246   */\n      0x00\n        /* \"#utility.yul\":17268:17273   */\n      dup2\n        /* \"#utility.yul\":17257:17273   */\n      swap1\n      pop\n        /* \"#utility.yul\":17202:17279   */\n      swap2\n      swap1\n      pop\n      jump\t// out\n        /* \"#utility.yul\":17285:17407   */\n    tag_172:\n        /* \"#utility.yul\":17358:17382   */\n      tag_322\n        /* \"#utility.yul\":17376:17381   */\n      dup2\n        /* \"#utility.yul\":17358:17382   */\n      tag_171\n      jump\t// in\n    tag_322:\n        /* \"#utility.yul\":17351:17356   */\n      dup2\n        /* \"#utility.yul\":17348:17383   */\n      eq\n        /* \"#utility.yul\":17338:17401   */\n      tag_323\n      jumpi\n        /* \"#utility.yul\":17397:17398   */\n      0x00\n        /* \"#utility.yul\":17394:17395   */\n      dup1\n        /* \"#utility.yul\":17387:17399   */\n      revert\n        /* \"#utility.yul\":17338:17401   */\n    tag_323:\n        /* \"#utility.yul\":17285:17407   */\n      pop\n      jump\t// out\n        /* \"#utility.yul\":17413:17556   */\n    tag_173:\n        /* \"#utility.yul\":17470:17475   */\n      0x00\n        /* \"#utility.yul\":17501:17507   */\n      dup2\n        /* \"#utility.yul\":17495:17508   */\n      mload\n        /* \"#utility.yul\":17486:17508   */\n      swap1\n      pop\n        /* \"#utility.yul\":17517:17550   */\n      tag_325\n        /* \"#utility.yul\":17544:17549   */\n      dup2\n        /* \"#utility.yul\":17517:17550   */\n      tag_172\n      jump\t// in\n    tag_325:\n        /* \"#utility.yul\":17413:17556   */\n      swap3\n      swap2\n      pop\n      pop\n      jump\t// out\n        /* \"#utility.yul\":17562:17913   */\n    tag_111:\n        /* \"#utility.yul\":17632:17638   */\n      0x00\n        /* \"#utility.yul\":17681:17683   */\n      0x20\n        /* \"#utility.yul\":17669:17678   */\n      dup3\n        /* \"#utility.yul\":17660:17667   */\n      dup5\n        /* \"#utility.yul\":17656:17679   */\n      sub\n        /* \"#utility.yul\":17652:17684   */\n      slt\n        /* \"#utility.yul\":17649:17768   */\n      iszero\n      tag_327\n      jumpi\n        /* \"#utility.yul\":17687:17766   */\n      tag_328\n      tag_134\n      jump\t// in\n    tag_328:\n        /* \"#utility.yul\":17649:17768   */\n    tag_327:\n        /* \"#utility.yul\":17807:17808   */\n      0x00\n        /* \"#utility.yul\":17832:17896   */\n      tag_329\n        /* \"#utility.yul\":17888:17895   */\n      dup5\n        /* \"#utility.yul\":17879:17885   */\n      dup3\n        /* \"#utility.yul\":17868:17877   */\n      dup6\n        /* \"#utility.yul\":17864:17886   */\n      add\n        /* \"#utility.yul\":17832:17896   */\n      tag_173\n      jump\t// in\n    tag_329:\n        /* \"#utility.yul\":17822:17896   */\n      swap2\n      pop\n        /* \"#utility.yul\":17778:17906   */\n      pop\n        /* \"#utility.yul\":17562:17913   */\n      swap3\n      swap2\n      pop\n      pop\n      jump\t// out\n\n    auxdata: 0xa2646970667358221220c37f2568d9d2da83dd87663bab86ed9cfb4bce6b9151b58b38599e0bb13bfa4764736f6c63430008160033\n}\n",
				"bytecode": {
					"linkReferences": {},
					"object": "608060405234801561000f575f80fd5b50335f806101000a81548173ffffffffffffffffffffffffffffffffffffffff021916908373ffffffffffffffffffffffffffffffffffffffff1602179055506110f48061005c5f395ff3fe60806040526004361061007a575f3560e01c8063893ef2881161004d578063893ef288146100e6578063ab528275146100fc578063b7d2c65414610126578063f71d96cb146101505761007a565b80631097e5791461007e578063481c6a7514610088578063663df2cb146100b25780638906272b146100bc575b5f80fd5b61008661018c565b005b348015610093575f80fd5b5061009c610313565b6040516100a991906108b2565b60405180910390f35b6100ba610336565b005b3480156100c7575f80fd5b506100d0610383565b6040516100dd9190610993565b60405180910390f35b3480156100f1575f80fd5b506100fa61040e565b005b348015610107575f80fd5b5061011061053e565b60405161011d91906109cb565b60405180910390f35b348015610131575f80fd5b5061013a610545565b60405161014791906109f3565b60405180910390f35b34801561015b575f80fd5b5061017660048036038101906101719190610a3a565b61067c565b60405161018391906109f3565b60405180910390f35b5f8054906101000a900473ffffffffffffffffffffffffffffffffffffffff1673ffffffffffffffffffffffffffffffffffffffff163373ffffffffffffffffffffffffffffffffffffffff1603610219576040517f08c379a000000000000000000000000000000000000000000000000000000000815260040161021090610abf565b60405180910390fd5b5f15156102246106b7565b151514610266576040517f08c379a000000000000000000000000000000000000000000000000000000000815260040161025d90610b27565b60405180910390fd5b670de0b6b3a76400003410156102b1576040517f08c379a00000000000000000000000000000000000000000000000000000000081526004016102a890610b8f565b60405180910390fd5b600133908060018154018082558091505060019003905f5260205f20015f9091909190916101000a81548173ffffffffffffffffffffffffffffffffffffffff021916908373ffffffffffffffffffffffffffffffffffffffff160217905550565b5f8054906101000a900473ffffffffffffffffffffffffffffffffffffffff1681565b61033e610545565b73ffffffffffffffffffffffffffffffffffffffff166108fc4790811502906040515f60405180830381858888f19350505050158015610380573d5f803e3d5ffd5b50565b6060600180548060200260200160405190810160405280929190818152602001828054801561040457602002820191905f5260205f20905b815f9054906101000a900473ffffffffffffffffffffffffffffffffffffffff1673ffffffffffffffffffffffffffffffffffffffff16815260200190600101908083116103bb575b5050505050905090565b5f8054906101000a900473ffffffffffffffffffffffffffffffffffffffff1673ffffffffffffffffffffffffffffffffffffffff163373ffffffffffffffffffffffffffffffffffffffff161461049b576040517f08c379a000000000000000000000000000000000000000000000000000000000815260040161049290610c1d565b60405180910390fd5b5f47146104dd576040517f08c379a00000000000000000000000000000000000000000000000000000000081526004016104d490610cab565b60405180910390fd5b5f67ffffffffffffffff8111156104f7576104f6610cc9565b5b6040519080825280602002602001820160405280156105255781602001602082028036833780820191505090505b506001908051906020019061053b9291906107d1565b50565b5f47905090565b5f806001805490501161058d576040517f08c379a000000000000000000000000000000000000000000000000000000000815260040161058490610d66565b60405180910390fd5b5f8054906101000a900473ffffffffffffffffffffffffffffffffffffffff1673ffffffffffffffffffffffffffffffffffffffff163373ffffffffffffffffffffffffffffffffffffffff161461061a576040517f08c379a000000000000000000000000000000000000000000000000000000000815260040161061190610dce565b60405180910390fd5b5f600180549050610629610757565b6106339190610e19565b90505f6001828154811061064a57610649610e49565b5b905f5260205f20015f9054906101000a900473ffffffffffffffffffffffffffffffffffffffff169050809250505090565b6001818154811061068b575f80fd5b905f5260205f20015f915054906101000a900473ffffffffffffffffffffffffffffffffffffffff1681565b5f805f90505b60018054905081101561074f573373ffffffffffffffffffffffffffffffffffffffff16600182815481106106f5576106f4610e49565b5b905f5260205f20015f9054906101000a900473ffffffffffffffffffffffffffffffffffffffff1673ffffffffffffffffffffffffffffffffffffffff1603610742576001915050610754565b80806001019150506106bd565b505f90505b90565b5f60024443600160405160200161077093929190610fa6565b60405160208183030381529060405260405161078c919061104a565b602060405180830381855afa1580156107a7573d5f803e3d5ffd5b5050506040513d601f19601f820116820180604052508101906107ca9190611093565b5f1c905090565b828054828255905f5260205f20908101928215610847579160200282015b82811115610846578251825f6101000a81548173ffffffffffffffffffffffffffffffffffffffff021916908373ffffffffffffffffffffffffffffffffffffffff160217905550916020019190600101906107ef565b5b5090506108549190610858565b5090565b5b8082111561086f575f815f905550600101610859565b5090565b5f73ffffffffffffffffffffffffffffffffffffffff82169050919050565b5f61089c82610873565b9050919050565b6108ac81610892565b82525050565b5f6020820190506108c55f8301846108a3565b92915050565b5f81519050919050565b5f82825260208201905092915050565b5f819050602082019050919050565b5f6108fe82610873565b9050919050565b61090e816108f4565b82525050565b5f61091f8383610905565b60208301905092915050565b5f602082019050919050565b5f610941826108cb565b61094b81856108d5565b9350610956836108e5565b805f5b8381101561098657815161096d8882610914565b97506109788361092b565b925050600181019050610959565b5085935050505092915050565b5f6020820190508181035f8301526109ab8184610937565b905092915050565b5f819050919050565b6109c5816109b3565b82525050565b5f6020820190506109de5f8301846109bc565b92915050565b6109ed816108f4565b82525050565b5f602082019050610a065f8301846109e4565b92915050565b5f80fd5b610a19816109b3565b8114610a23575f80fd5b50565b5f81359050610a3481610a10565b92915050565b5f60208284031215610a4f57610a4e610a0c565b5b5f610a5c84828501610a26565b91505092915050565b5f82825260208201905092915050565b7f4d616e616765727320617265206e6f7420616c6c6f77656400000000000000005f82015250565b5f610aa9601883610a65565b9150610ab482610a75565b602082019050919050565b5f6020820190508181035f830152610ad681610a9d565b9050919050565b7f596f7520616c72656164792072656769737465726564000000000000000000005f82015250565b5f610b11601683610a65565b9150610b1c82610add565b602082019050919050565b5f6020820190508181035f830152610b3e81610b05565b9050919050565b7f4d696e696d756d207061796d656e7420697320312045746865720000000000005f82015250565b5f610b79601a83610a65565b9150610b8482610b45565b602082019050919050565b5f6020820190508181035f830152610ba681610b6d565b9050919050565b7f4f6e6c79206d616e616765722063616e20726573657420746865204c6f7474655f8201527f7279000000000000000000000000000000000000000000000000000000000000602082015250565b5f610c07602283610a65565b9150610c1282610bad565b604082019050919050565b5f6020820190508181035f830152610c3481610bfb565b9050919050565b7f43757272656e74204c6f74746572792077696e6e6572206973206e6f742064655f8201527f636c617265640000000000000000000000000000000000000000000000000000602082015250565b5f610c95602683610a65565b9150610ca082610c3b565b604082019050919050565b5f6020820190508181035f830152610cc281610c89565b9050919050565b7f4e487b71000000000000000000000000000000000000000000000000000000005f52604160045260245ffd5b7f4d696e696d756d2074776f20706c6179657273206861766520746f20726567695f8201527f7374657220746f2073656c65637420612077696e6e6572000000000000000000602082015250565b5f610d50603783610a65565b9150610d5b82610cf6565b604082019050919050565b5f6020820190508181035f830152610d7d81610d44565b9050919050565b7f4f6e6c79204d616e616765722063616e206163636573732074686973000000005f82015250565b5f610db8601c83610a65565b9150610dc382610d84565b602082019050919050565b5f6020820190508181035f830152610de581610dac565b9050919050565b7f4e487b71000000000000000000000000000000000000000000000000000000005f52601260045260245ffd5b5f610e23826109b3565b9150610e2e836109b3565b925082610e3e57610e3d610dec565b5b828206905092915050565b7f4e487b71000000000000000000000000000000000000000000000000000000005f52603260045260245ffd5b5f819050919050565b610e90610e8b826109b3565b610e76565b82525050565b5f81549050919050565b5f81905092915050565b5f819050815f5260205f209050919050565b610ec5816108f4565b82525050565b5f610ed68383610ebc565b60208301905092915050565b5f815f1c9050919050565b5f73ffffffffffffffffffffffffffffffffffffffff82169050919050565b5f610f1e610f1983610ee2565b610eed565b9050919050565b5f610f308254610f0c565b9050919050565b5f600182019050919050565b5f610f4d82610e96565b610f578185610ea0565b9350610f6283610eaa565b805f5b83811015610f9957610f7682610f25565b610f808882610ecb565b9750610f8b83610f37565b925050600181019050610f65565b5085935050505092915050565b5f610fb18286610e7f565b602082019150610fc18285610e7f565b602082019150610fd18284610f43565b9150819050949350505050565b5f81519050919050565b5f81905092915050565b5f5b8381101561100f578082015181840152602081019050610ff4565b5f8484015250505050565b5f61102482610fde565b61102e8185610fe8565b935061103e818560208601610ff2565b80840191505092915050565b5f611055828461101a565b915081905092915050565b5f819050919050565b61107281611060565b811461107c575f80fd5b50565b5f8151905061108d81611069565b92915050565b5f602082840312156110a8576110a7610a0c565b5b5f6110b58482850161107f565b9150509291505056fea2646970667358221220c37f2568d9d2da83dd87663bab86ed9cfb4bce6b9151b58b38599e0bb13bfa4764736f6c63430008160033",
					"opcodes": "PUSH1 0x80 PUSH1 0x40 MSTORE CALLVALUE DUP1 ISZERO PUSH2 0xF JUMPI PUSH0 DUP1 REVERT JUMPDEST POP CALLER PUSH0 DUP1 PUSH2 0x100 EXP DUP2 SLOAD DUP2 PUSH20 0xFFFFFFFFFFFFFFFFFFFFFFFFFFFFFFFFFFFFFFFF MUL NOT AND SWAP1 DUP4 PUSH20 0xFFFFFFFFFFFFFFFFFFFFFFFFFFFFFFFFFFFFFFFF AND MUL OR SWAP1 SSTORE POP PUSH2 0x10F4 DUP1 PUSH2 0x5C PUSH0 CODECOPY PUSH0 RETURN INVALID PUSH1 0x80 PUSH1 0x40 MSTORE PUSH1 0x4 CALLDATASIZE LT PUSH2 0x7A JUMPI PUSH0 CALLDATALOAD PUSH1 0xE0 SHR DUP1 PUSH4 0x893EF288 GT PUSH2 0x4D JUMPI DUP1 PUSH4 0x893EF288 EQ PUSH2 0xE6 JUMPI DUP1 PUSH4 0xAB528275 EQ PUSH2 0xFC JUMPI DUP1 PUSH4 0xB7D2C654 EQ PUSH2 0x126 JUMPI DUP1 PUSH4 0xF71D96CB EQ PUSH2 0x150 JUMPI PUSH2 0x7A JUMP JUMPDEST DUP1 PUSH4 0x1097E579 EQ PUSH2 0x7E JUMPI DUP1 PUSH4 0x481C6A75 EQ PUSH2 0x88 JUMPI DUP1 PUSH4 0x663DF2CB EQ PUSH2 0xB2 JUMPI DUP1 PUSH4 0x8906272B EQ PUSH2 0xBC JUMPI JUMPDEST PUSH0 DUP1 REVERT JUMPDEST PUSH2 0x86 PUSH2 0x18C JUMP JUMPDEST STOP JUMPDEST CALLVALUE DUP1 ISZERO PUSH2 0x93 JUMPI PUSH0 DUP1 REVERT JUMPDEST POP PUSH2 0x9C PUSH2 0x313 JUMP JUMPDEST PUSH1 0x40 MLOAD PUSH2 0xA9 SWAP2 SWAP1 PUSH2 0x8B2 JUMP JUMPDEST PUSH1 0x40 MLOAD DUP1 SWAP2 SUB SWAP1 RETURN JUMPDEST PUSH2 0xBA PUSH2 0x336 JUMP JUMPDEST STOP JUMPDEST CALLVALUE DUP1 ISZERO PUSH2 0xC7 JUMPI PUSH0 DUP1 REVERT JUMPDEST POP PUSH2 0xD0 PUSH2 0x383 JUMP JUMPDEST PUSH1 0x40 MLOAD PUSH2 0xDD SWAP2 SWAP1 PUSH2 0x993 JUMP JUMPDEST PUSH1 0x40 MLOAD DUP1 SWAP2 SUB SWAP1 RETURN JUMPDEST CALLVALUE DUP1 ISZERO PUSH2 0xF1 JUMPI PUSH0 DUP1 REVERT JUMPDEST POP PUSH2 0xFA PUSH2 0x40E JUMP JUMPDEST STOP JUMPDEST CALLVALUE DUP1 ISZERO PUSH2 0x107 JUMPI PUSH0 DUP1 REVERT JUMPDEST POP PUSH2 0x110 PUSH2 0x53E JUMP JUMPDEST PUSH1 0x40 MLOAD PUSH2 0x11D SWAP2 SWAP1 PUSH2 0x9CB JUMP JUMPDEST PUSH1 0x40 MLOAD DUP1 SWAP2 SUB SWAP1 RETURN JUMPDEST CALLVALUE DUP1 ISZERO PUSH2 0x131 JUMPI PUSH0 DUP1 REVERT JUMPDEST POP PUSH2 0x13A PUSH2 0x545 JUMP JUMPDEST PUSH1 0x40 MLOAD PUSH2 0x147 SWAP2 SWAP1 PUSH2 0x9F3 JUMP JUMPDEST PUSH1 0x40 MLOAD DUP1 SWAP2 SUB SWAP1 RETURN JUMPDEST CALLVALUE DUP1 ISZERO PUSH2 0x15B JUMPI PUSH0 DUP1 REVERT JUMPDEST POP PUSH2 0x176 PUSH1 0x4 DUP1 CALLDATASIZE SUB DUP2 ADD SWAP1 PUSH2 0x171 SWAP2 SWAP1 PUSH2 0xA3A JUMP JUMPDEST PUSH2 0x67C JUMP JUMPDEST PUSH1 0x40 MLOAD PUSH2 0x183 SWAP2 SWAP1 PUSH2 0x9F3 JUMP JUMPDEST PUSH1 0x40 MLOAD DUP1 SWAP2 SUB SWAP1 RETURN JUMPDEST PUSH0 DUP1 SLOAD SWAP1 PUSH2 0x100 EXP SWAP1 DIV PUSH20 0xFFFFFFFFFFFFFFFFFFFFFFFFFFFFFFFFFFFFFFFF AND PUSH20 0xFFFFFFFFFFFFFFFFFFFFFFFFFFFFFFFFFFFFFFFF AND CALLER PUSH20 0xFFFFFFFFFFFFFFFFFFFFFFFFFFFFFFFFFFFFFFFF AND SUB PUSH2 0x219 JUMPI PUSH1 0x40 MLOAD PUSH32 0x8C379A000000000000000000000000000000000000000000000000000000000 DUP2 MSTORE PUSH1 0x4 ADD PUSH2 0x210 SWAP1 PUSH2 0xABF JUMP JUMPDEST PUSH1 0x40 MLOAD DUP1 SWAP2 SUB SWAP1 REVERT JUMPDEST PUSH0 ISZERO ISZERO PUSH2 0x224 PUSH2 0x6B7 JUMP JUMPDEST ISZERO ISZERO EQ PUSH2 0x266 JUMPI PUSH1 0x40 MLOAD PUSH32 0x8C379A000000000000000000000000000000000000000000000000000000000 DUP2 MSTORE PUSH1 0x4 ADD PUSH2 0x25D SWAP1 PUSH2 0xB27 JUMP JUMPDEST PUSH1 0x40 MLOAD DUP1 SWAP2 SUB SWAP1 REVERT JUMPDEST PUSH8 0xDE0B6B3A7640000 CALLVALUE LT ISZERO PUSH2 0x2B1 JUMPI PUSH1 0x40 MLOAD PUSH32 0x8C379A000000000000000000000000000000000000000000000000000000000 DUP2 MSTORE PUSH1 0x4 ADD PUSH2 0x2A8 SWAP1 PUSH2 0xB8F JUMP JUMPDEST PUSH1 0x40 MLOAD DUP1 SWAP2 SUB SWAP1 REVERT JUMPDEST PUSH1 0x1 CALLER SWAP1 DUP1 PUSH1 0x1 DUP2 SLOAD ADD DUP1 DUP3 SSTORE DUP1 SWAP2 POP POP PUSH1 0x1 SWAP1 SUB SWAP1 PUSH0 MSTORE PUSH1 0x20 PUSH0 KECCAK256 ADD PUSH0 SWAP1 SWAP2 SWAP1 SWAP2 SWAP1 SWAP2 PUSH2 0x100 EXP DUP2 SLOAD DUP2 PUSH20 0xFFFFFFFFFFFFFFFFFFFFFFFFFFFFFFFFFFFFFFFF MUL NOT AND SWAP1 DUP4 PUSH20 0xFFFFFFFFFFFFFFFFFFFFFFFFFFFFFFFFFFFFFFFF AND MUL OR SWAP1 SSTORE POP JUMP JUMPDEST PUSH0 DUP1 SLOAD SWAP1 PUSH2 0x100 EXP SWAP1 DIV PUSH20 0xFFFFFFFFFFFFFFFFFFFFFFFFFFFFFFFFFFFFFFFF AND DUP2 JUMP JUMPDEST PUSH2 0x33E PUSH2 0x545 JUMP JUMPDEST PUSH20 0xFFFFFFFFFFFFFFFFFFFFFFFFFFFFFFFFFFFFFFFF AND PUSH2 0x8FC SELFBALANCE SWAP1 DUP2 ISZERO MUL SWAP1 PUSH1 0x40 MLOAD PUSH0 PUSH1 0x40 MLOAD DUP1 DUP4 SUB DUP2 DUP6 DUP9 DUP9 CALL SWAP4 POP POP POP POP ISZERO DUP1 ISZERO PUSH2 0x380 JUMPI RETURNDATASIZE PUSH0 DUP1 RETURNDATACOPY RETURNDATASIZE PUSH0 REVERT JUMPDEST POP JUMP JUMPDEST PUSH1 0x60 PUSH1 0x1 DUP1 SLOAD DUP1 PUSH1 0x20 MUL PUSH1 0x20 ADD PUSH1 0x40 MLOAD SWAP1 DUP2 ADD PUSH1 0x40 MSTORE DUP1 SWAP3 SWAP2 SWAP1 DUP2 DUP2 MSTORE PUSH1 0x20 ADD DUP3 DUP1 SLOAD DUP1 ISZERO PUSH2 0x404 JUMPI PUSH1 0x20 MUL DUP3 ADD SWAP2 SWAP1 PUSH0 MSTORE PUSH1 0x20 PUSH0 KECCAK256 SWAP1 JUMPDEST DUP2 PUSH0 SWAP1 SLOAD SWAP1 PUSH2 0x100 EXP SWAP1 DIV PUSH20 0xFFFFFFFFFFFFFFFFFFFFFFFFFFFFFFFFFFFFFFFF AND PUSH20 0xFFFFFFFFFFFFFFFFFFFFFFFFFFFFFFFFFFFFFFFF AND DUP2 MSTORE PUSH1 0x20 ADD SWAP1 PUSH1 0x1 ADD SWAP1 DUP1 DUP4 GT PUSH2 0x3BB JUMPI JUMPDEST POP POP POP POP POP SWAP1 POP SWAP1 JUMP JUMPDEST PUSH0 DUP1 SLOAD SWAP1 PUSH2 0x100 EXP SWAP1 DIV PUSH20 0xFFFFFFFFFFFFFFFFFFFFFFFFFFFFFFFFFFFFFFFF AND PUSH20 0xFFFFFFFFFFFFFFFFFFFFFFFFFFFFFFFFFFFFFFFF AND CALLER PUSH20 0xFFFFFFFFFFFFFFFFFFFFFFFFFFFFFFFFFFFFFFFF AND EQ PUSH2 0x49B JUMPI PUSH1 0x40 MLOAD PUSH32 0x8C379A000000000000000000000000000000000000000000000000000000000 DUP2 MSTORE PUSH1 0x4 ADD PUSH2 0x492 SWAP1 PUSH2 0xC1D JUMP JUMPDEST PUSH1 0x40 MLOAD DUP1 SWAP2 SUB SWAP1 REVERT JUMPDEST PUSH0 SELFBALANCE EQ PUSH2 0x4DD JUMPI PUSH1 0x40 MLOAD PUSH32 0x8C379A000000000000000000000000000000000000000000000000000000000 DUP2 MSTORE PUSH1 0x4 ADD PUSH2 0x4D4 SWAP1 PUSH2 0xCAB JUMP JUMPDEST PUSH1 0x40 MLOAD DUP1 SWAP2 SUB SWAP1 REVERT JUMPDEST PUSH0 PUSH8 0xFFFFFFFFFFFFFFFF DUP2 GT ISZERO PUSH2 0x4F7 JUMPI PUSH2 0x4F6 PUSH2 0xCC9 JUMP JUMPDEST JUMPDEST PUSH1 0x40 MLOAD SWAP1 DUP1 DUP3 MSTORE DUP1 PUSH1 0x20 MUL PUSH1 0x20 ADD DUP3 ADD PUSH1 0x40 MSTORE DUP1 ISZERO PUSH2 0x525 JUMPI DUP2 PUSH1 0x20 ADD PUSH1 0x20 DUP3 MUL DUP1 CALLDATASIZE DUP4 CALLDATACOPY DUP1 DUP3 ADD SWAP2 POP POP SWAP1 POP JUMPDEST POP PUSH1 0x1 SWAP1 DUP1 MLOAD SWAP1 PUSH1 0x20 ADD SWAP1 PUSH2 0x53B SWAP3 SWAP2 SWAP1 PUSH2 0x7D1 JUMP JUMPDEST POP JUMP JUMPDEST PUSH0 SELFBALANCE SWAP1 POP SWAP1 JUMP JUMPDEST PUSH0 DUP1 PUSH1 0x1 DUP1 SLOAD SWAP1 POP GT PUSH2 0x58D JUMPI PUSH1 0x40 MLOAD PUSH32 0x8C379A000000000000000000000000000000000000000000000000000000000 DUP2 MSTORE PUSH1 0x4 ADD PUSH2 0x584 SWAP1 PUSH2 0xD66 JUMP JUMPDEST PUSH1 0x40 MLOAD DUP1 SWAP2 SUB SWAP1 REVERT JUMPDEST PUSH0 DUP1 SLOAD SWAP1 PUSH2 0x100 EXP SWAP1 DIV PUSH20 0xFFFFFFFFFFFFFFFFFFFFFFFFFFFFFFFFFFFFFFFF AND PUSH20 0xFFFFFFFFFFFFFFFFFFFFFFFFFFFFFFFFFFFFFFFF AND CALLER PUSH20 0xFFFFFFFFFFFFFFFFFFFFFFFFFFFFFFFFFFFFFFFF AND EQ PUSH2 0x61A JUMPI PUSH1 0x40 MLOAD PUSH32 0x8C379A000000000000000000000000000000000000000000000000000000000 DUP2 MSTORE PUSH1 0x4 ADD PUSH2 0x611 SWAP1 PUSH2 0xDCE JUMP JUMPDEST PUSH1 0x40 MLOAD DUP1 SWAP2 SUB SWAP1 REVERT JUMPDEST PUSH0 PUSH1 0x1 DUP1 SLOAD SWAP1 POP PUSH2 0x629 PUSH2 0x757 JUMP JUMPDEST PUSH2 0x633 SWAP2 SWAP1 PUSH2 0xE19 JUMP JUMPDEST SWAP1 POP PUSH0 PUSH1 0x1 DUP3 DUP2 SLOAD DUP2 LT PUSH2 0x64A JUMPI PUSH2 0x649 PUSH2 0xE49 JUMP JUMPDEST JUMPDEST SWAP1 PUSH0 MSTORE PUSH1 0x20 PUSH0 KECCAK256 ADD PUSH0 SWAP1 SLOAD SWAP1 PUSH2 0x100 EXP SWAP1 DIV PUSH20 0xFFFFFFFFFFFFFFFFFFFFFFFFFFFFFFFFFFFFFFFF AND SWAP1 POP DUP1 SWAP3 POP POP POP SWAP1 JUMP JUMPDEST PUSH1 0x1 DUP2 DUP2 SLOAD DUP2 LT PUSH2 0x68B JUMPI PUSH0 DUP1 REVERT JUMPDEST SWAP1 PUSH0 MSTORE PUSH1 0x20 PUSH0 KECCAK256 ADD PUSH0 SWAP2 POP SLOAD SWAP1 PUSH2 0x100 EXP SWAP1 DIV PUSH20 0xFFFFFFFFFFFFFFFFFFFFFFFFFFFFFFFFFFFFFFFF AND DUP2 JUMP JUMPDEST PUSH0 DUP1 PUSH0 SWAP1 POP JUMPDEST PUSH1 0x1 DUP1 SLOAD SWAP1 POP DUP2 LT ISZERO PUSH2 0x74F JUMPI CALLER PUSH20 0xFFFFFFFFFFFFFFFFFFFFFFFFFFFFFFFFFFFFFFFF AND PUSH1 0x1 DUP3 DUP2 SLOAD DUP2 LT PUSH2 0x6F5 JUMPI PUSH2 0x6F4 PUSH2 0xE49 JUMP JUMPDEST JUMPDEST SWAP1 PUSH0 MSTORE PUSH1 0x20 PUSH0 KECCAK256 ADD PUSH0 SWAP1 SLOAD SWAP1 PUSH2 0x100 EXP SWAP1 DIV PUSH20 0xFFFFFFFFFFFFFFFFFFFFFFFFFFFFFFFFFFFFFFFF AND PUSH20 0xFFFFFFFFFFFFFFFFFFFFFFFFFFFFFFFFFFFFFFFF AND SUB PUSH2 0x742 JUMPI PUSH1 0x1 SWAP2 POP POP PUSH2 0x754 JUMP JUMPDEST DUP1 DUP1 PUSH1 0x1 ADD SWAP2 POP POP PUSH2 0x6BD JUMP JUMPDEST POP PUSH0 SWAP1 POP JUMPDEST SWAP1 JUMP JUMPDEST PUSH0 PUSH1 0x2 PREVRANDAO NUMBER PUSH1 0x1 PUSH1 0x40 MLOAD PUSH1 0x20 ADD PUSH2 0x770 SWAP4 SWAP3 SWAP2 SWAP1 PUSH2 0xFA6 JUMP JUMPDEST PUSH1 0x40 MLOAD PUSH1 0x20 DUP2 DUP4 SUB SUB DUP2 MSTORE SWAP1 PUSH1 0x40 MSTORE PUSH1 0x40 MLOAD PUSH2 0x78C SWAP2 SWAP1 PUSH2 0x104A JUMP JUMPDEST PUSH1 0x20 PUSH1 0x40 MLOAD DUP1 DUP4 SUB DUP2 DUP6 GAS STATICCALL ISZERO DUP1 ISZERO PUSH2 0x7A7 JUMPI RETURNDATASIZE PUSH0 DUP1 RETURNDATACOPY RETURNDATASIZE PUSH0 REVERT JUMPDEST POP POP POP PUSH1 0x40 MLOAD RETURNDATASIZE PUSH1 0x1F NOT PUSH1 0x1F DUP3 ADD AND DUP3 ADD DUP1 PUSH1 0x40 MSTORE POP DUP2 ADD SWAP1 PUSH2 0x7CA SWAP2 SWAP1 PUSH2 0x1093 JUMP JUMPDEST PUSH0 SHR SWAP1 POP SWAP1 JUMP JUMPDEST DUP3 DUP1 SLOAD DUP3 DUP3 SSTORE SWAP1 PUSH0 MSTORE PUSH1 0x20 PUSH0 KECCAK256 SWAP1 DUP2 ADD SWAP3 DUP3 ISZERO PUSH2 0x847 JUMPI SWAP2 PUSH1 0x20 MUL DUP3 ADD JUMPDEST DUP3 DUP2 GT ISZERO PUSH2 0x846 JUMPI DUP3 MLOAD DUP3 PUSH0 PUSH2 0x100 EXP DUP2 SLOAD DUP2 PUSH20 0xFFFFFFFFFFFFFFFFFFFFFFFFFFFFFFFFFFFFFFFF MUL NOT AND SWAP1 DUP4 PUSH20 0xFFFFFFFFFFFFFFFFFFFFFFFFFFFFFFFFFFFFFFFF AND MUL OR SWAP1 SSTORE POP SWAP2 PUSH1 0x20 ADD SWAP2 SWAP1 PUSH1 0x1 ADD SWAP1 PUSH2 0x7EF JUMP JUMPDEST JUMPDEST POP SWAP1 POP PUSH2 0x854 SWAP2 SWAP1 PUSH2 0x858 JUMP JUMPDEST POP SWAP1 JUMP JUMPDEST JUMPDEST DUP1 DUP3 GT ISZERO PUSH2 0x86F JUMPI PUSH0 DUP2 PUSH0 SWAP1 SSTORE POP PUSH1 0x1 ADD PUSH2 0x859 JUMP JUMPDEST POP SWAP1 JUMP JUMPDEST PUSH0 PUSH20 0xFFFFFFFFFFFFFFFFFFFFFFFFFFFFFFFFFFFFFFFF DUP3 AND SWAP1 POP SWAP2 SWAP1 POP JUMP JUMPDEST PUSH0 PUSH2 0x89C DUP3 PUSH2 0x873 JUMP JUMPDEST SWAP1 POP SWAP2 SWAP1 POP JUMP JUMPDEST PUSH2 0x8AC DUP2 PUSH2 0x892 JUMP JUMPDEST DUP3 MSTORE POP POP JUMP JUMPDEST PUSH0 PUSH1 0x20 DUP3 ADD SWAP1 POP PUSH2 0x8C5 PUSH0 DUP4 ADD DUP5 PUSH2 0x8A3 JUMP JUMPDEST SWAP3 SWAP2 POP POP JUMP JUMPDEST PUSH0 DUP2 MLOAD SWAP1 POP SWAP2 SWAP1 POP JUMP JUMPDEST PUSH0 DUP3 DUP3 MSTORE PUSH1 0x20 DUP3 ADD SWAP1 POP SWAP3 SWAP2 POP POP JUMP JUMPDEST PUSH0 DUP2 SWAP1 POP PUSH1 0x20 DUP3 ADD SWAP1 POP SWAP2 SWAP1 POP JUMP JUMPDEST PUSH0 PUSH2 0x8FE DUP3 PUSH2 0x873 JUMP JUMPDEST SWAP1 POP SWAP2 SWAP1 POP JUMP JUMPDEST PUSH2 0x90E DUP2 PUSH2 0x8F4 JUMP JUMPDEST DUP3 MSTORE POP POP JUMP JUMPDEST PUSH0 PUSH2 0x91F DUP4 DUP4 PUSH2 0x905 JUMP JUMPDEST PUSH1 0x20 DUP4 ADD SWAP1 POP SWAP3 SWAP2 POP POP JUMP JUMPDEST PUSH0 PUSH1 0x20 DUP3 ADD SWAP1 POP SWAP2 SWAP1 POP JUMP JUMPDEST PUSH0 PUSH2 0x941 DUP3 PUSH2 0x8CB JUMP JUMPDEST PUSH2 0x94B DUP2 DUP6 PUSH2 0x8D5 JUMP JUMPDEST SWAP4 POP PUSH2 0x956 DUP4 PUSH2 0x8E5 JUMP JUMPDEST DUP1 PUSH0 JUMPDEST DUP4 DUP2 LT ISZERO PUSH2 0x986 JUMPI DUP2 MLOAD PUSH2 0x96D DUP9 DUP3 PUSH2 0x914 JUMP JUMPDEST SWAP8 POP PUSH2 0x978 DUP4 PUSH2 0x92B JUMP JUMPDEST SWAP3 POP POP PUSH1 0x1 DUP2 ADD SWAP1 POP PUSH2 0x959 JUMP JUMPDEST POP DUP6 SWAP4 POP POP POP POP SWAP3 SWAP2 POP POP JUMP JUMPDEST PUSH0 PUSH1 0x20 DUP3 ADD SWAP1 POP DUP2 DUP2 SUB PUSH0 DUP4 ADD MSTORE PUSH2 0x9AB DUP2 DUP5 PUSH2 0x937 JUMP JUMPDEST SWAP1 POP SWAP3 SWAP2 POP POP JUMP JUMPDEST PUSH0 DUP2 SWAP1 POP SWAP2 SWAP1 POP JUMP JUMPDEST PUSH2 0x9C5 DUP2 PUSH2 0x9B3 JUMP JUMPDEST DUP3 MSTORE POP POP JUMP JUMPDEST PUSH0 PUSH1 0x20 DUP3 ADD SWAP1 POP PUSH2 0x9DE PUSH0 DUP4 ADD DUP5 PUSH2 0x9BC JUMP JUMPDEST SWAP3 SWAP2 POP POP JUMP JUMPDEST PUSH2 0x9ED DUP2 PUSH2 0x8F4 JUMP JUMPDEST DUP3 MSTORE POP POP JUMP JUMPDEST PUSH0 PUSH1 0x20 DUP3 ADD SWAP1 POP PUSH2 0xA06 PUSH0 DUP4 ADD DUP5 PUSH2 0x9E4 JUMP JUMPDEST SWAP3 SWAP2 POP POP JUMP JUMPDEST PUSH0 DUP1 REVERT JUMPDEST PUSH2 0xA19 DUP2 PUSH2 0x9B3 JUMP JUMPDEST DUP2 EQ PUSH2 0xA23 JUMPI PUSH0 DUP1 REVERT JUMPDEST POP JUMP JUMPDEST PUSH0 DUP2 CALLDATALOAD SWAP1 POP PUSH2 0xA34 DUP2 PUSH2 0xA10 JUMP JUMPDEST SWAP3 SWAP2 POP POP JUMP JUMPDEST PUSH0 PUSH1 0x20 DUP3 DUP5 SUB SLT ISZERO PUSH2 0xA4F JUMPI PUSH2 0xA4E PUSH2 0xA0C JUMP JUMPDEST JUMPDEST PUSH0 PUSH2 0xA5C DUP5 DUP3 DUP6 ADD PUSH2 0xA26 JUMP JUMPDEST SWAP2 POP POP SWAP3 SWAP2 POP POP JUMP JUMPDEST PUSH0 DUP3 DUP3 MSTORE PUSH1 0x20 DUP3 ADD SWAP1 POP SWAP3 SWAP2 POP POP JUMP JUMPDEST PUSH32 0x4D616E616765727320617265206E6F7420616C6C6F7765640000000000000000 PUSH0 DUP3 ADD MSTORE POP JUMP JUMPDEST PUSH0 PUSH2 0xAA9 PUSH1 0x18 DUP4 PUSH2 0xA65 JUMP JUMPDEST SWAP2 POP PUSH2 0xAB4 DUP3 PUSH2 0xA75 JUMP JUMPDEST PUSH1 0x20 DUP3 ADD SWAP1 POP SWAP2 SWAP1 POP JUMP JUMPDEST PUSH0 PUSH1 0x20 DUP3 ADD SWAP1 POP DUP2 DUP2 SUB PUSH0 DUP4 ADD MSTORE PUSH2 0xAD6 DUP2 PUSH2 0xA9D JUMP JUMPDEST SWAP1 POP SWAP2 SWAP1 POP JUMP JUMPDEST PUSH32 0x596F7520616C7265616479207265676973746572656400000000000000000000 PUSH0 DUP3 ADD MSTORE POP JUMP JUMPDEST PUSH0 PUSH2 0xB11 PUSH1 0x16 DUP4 PUSH2 0xA65 JUMP JUMPDEST SWAP2 POP PUSH2 0xB1C DUP3 PUSH2 0xADD JUMP JUMPDEST PUSH1 0x20 DUP3 ADD SWAP1 POP SWAP2 SWAP1 POP JUMP JUMPDEST PUSH0 PUSH1 0x20 DUP3 ADD SWAP1 POP DUP2 DUP2 SUB PUSH0 DUP4 ADD MSTORE PUSH2 0xB3E DUP2 PUSH2 0xB05 JUMP JUMPDEST SWAP1 POP SWAP2 SWAP1 POP JUMP JUMPDEST PUSH32 0x4D696E696D756D207061796D656E742069732031204574686572000000000000 PUSH0 DUP3 ADD MSTORE POP JUMP JUMPDEST PUSH0 PUSH2 0xB79 PUSH1 0x1A DUP4 PUSH2 0xA65 JUMP JUMPDEST SWAP2 POP PUSH2 0xB84 DUP3 PUSH2 0xB45 JUMP JUMPDEST PUSH1 0x20 DUP3 ADD SWAP1 POP SWAP2 SWAP1 POP JUMP JUMPDEST PUSH0 PUSH1 0x20 DUP3 ADD SWAP1 POP DUP2 DUP2 SUB PUSH0 DUP4 ADD MSTORE PUSH2 0xBA6 DUP2 PUSH2 0xB6D JUMP JUMPDEST SWAP1 POP SWAP2 SWAP1 POP JUMP JUMPDEST PUSH32 0x4F6E6C79206D616E616765722063616E20726573657420746865204C6F747465 PUSH0 DUP3 ADD MSTORE PUSH32 0x7279000000000000000000000000000000000000000000000000000000000000 PUSH1 0x20 DUP3 ADD MSTORE POP JUMP JUMPDEST PUSH0 PUSH2 0xC07 PUSH1 0x22 DUP4 PUSH2 0xA65 JUMP JUMPDEST SWAP2 POP PUSH2 0xC12 DUP3 PUSH2 0xBAD JUMP JUMPDEST PUSH1 0x40 DUP3 ADD SWAP1 POP SWAP2 SWAP1 POP JUMP JUMPDEST PUSH0 PUSH1 0x20 DUP3 ADD SWAP1 POP DUP2 DUP2 SUB PUSH0 DUP4 ADD MSTORE PUSH2 0xC34 DUP2 PUSH2 0xBFB JUMP JUMPDEST SWAP1 POP SWAP2 SWAP1 POP JUMP JUMPDEST PUSH32 0x43757272656E74204C6F74746572792077696E6E6572206973206E6F74206465 PUSH0 DUP3 ADD MSTORE PUSH32 0x636C617265640000000000000000000000000000000000000000000000000000 PUSH1 0x20 DUP3 ADD MSTORE POP JUMP JUMPDEST PUSH0 PUSH2 0xC95 PUSH1 0x26 DUP4 PUSH2 0xA65 JUMP JUMPDEST SWAP2 POP PUSH2 0xCA0 DUP3 PUSH2 0xC3B JUMP JUMPDEST PUSH1 0x40 DUP3 ADD SWAP1 POP SWAP2 SWAP1 POP JUMP JUMPDEST PUSH0 PUSH1 0x20 DUP3 ADD SWAP1 POP DUP2 DUP2 SUB PUSH0 DUP4 ADD MSTORE PUSH2 0xCC2 DUP2 PUSH2 0xC89 JUMP JUMPDEST SWAP1 POP SWAP2 SWAP1 POP JUMP JUMPDEST PUSH32 0x4E487B7100000000000000000000000000000000000000000000000000000000 PUSH0 MSTORE PUSH1 0x41 PUSH1 0x4 MSTORE PUSH1 0x24 PUSH0 REVERT JUMPDEST PUSH32 0x4D696E696D756D2074776F20706C6179657273206861766520746F2072656769 PUSH0 DUP3 ADD MSTORE PUSH32 0x7374657220746F2073656C65637420612077696E6E6572000000000000000000 PUSH1 0x20 DUP3 ADD MSTORE POP JUMP JUMPDEST PUSH0 PUSH2 0xD50 PUSH1 0x37 DUP4 PUSH2 0xA65 JUMP JUMPDEST SWAP2 POP PUSH2 0xD5B DUP3 PUSH2 0xCF6 JUMP JUMPDEST PUSH1 0x40 DUP3 ADD SWAP1 POP SWAP2 SWAP1 POP JUMP JUMPDEST PUSH0 PUSH1 0x20 DUP3 ADD SWAP1 POP DUP2 DUP2 SUB PUSH0 DUP4 ADD MSTORE PUSH2 0xD7D DUP2 PUSH2 0xD44 JUMP JUMPDEST SWAP1 POP SWAP2 SWAP1 POP JUMP JUMPDEST PUSH32 0x4F6E6C79204D616E616765722063616E20616363657373207468697300000000 PUSH0 DUP3 ADD MSTORE POP JUMP JUMPDEST PUSH0 PUSH2 0xDB8 PUSH1 0x1C DUP4 PUSH2 0xA65 JUMP JUMPDEST SWAP2 POP PUSH2 0xDC3 DUP3 PUSH2 0xD84 JUMP JUMPDEST PUSH1 0x20 DUP3 ADD SWAP1 POP SWAP2 SWAP1 POP JUMP JUMPDEST PUSH0 PUSH1 0x20 DUP3 ADD SWAP1 POP DUP2 DUP2 SUB PUSH0 DUP4 ADD MSTORE PUSH2 0xDE5 DUP2 PUSH2 0xDAC JUMP JUMPDEST SWAP1 POP SWAP2 SWAP1 POP JUMP JUMPDEST PUSH32 0x4E487B7100000000000000000000000000000000000000000000000000000000 PUSH0 MSTORE PUSH1 0x12 PUSH1 0x4 MSTORE PUSH1 0x24 PUSH0 REVERT JUMPDEST PUSH0 PUSH2 0xE23 DUP3 PUSH2 0x9B3 JUMP JUMPDEST SWAP2 POP PUSH2 0xE2E DUP4 PUSH2 0x9B3 JUMP JUMPDEST SWAP3 POP DUP3 PUSH2 0xE3E JUMPI PUSH2 0xE3D PUSH2 0xDEC JUMP JUMPDEST JUMPDEST DUP3 DUP3 MOD SWAP1 POP SWAP3 SWAP2 POP POP JUMP JUMPDEST PUSH32 0x4E487B7100000000000000000000000000000000000000000000000000000000 PUSH0 MSTORE PUSH1 0x32 PUSH1 0x4 MSTORE PUSH1 0x24 PUSH0 REVERT JUMPDEST PUSH0 DUP2 SWAP1 POP SWAP2 SWAP1 POP JUMP JUMPDEST PUSH2 0xE90 PUSH2 0xE8B DUP3 PUSH2 0x9B3 JUMP JUMPDEST PUSH2 0xE76 JUMP JUMPDEST DUP3 MSTORE POP POP JUMP JUMPDEST PUSH0 DUP2 SLOAD SWAP1 POP SWAP2 SWAP1 POP JUMP JUMPDEST PUSH0 DUP2 SWAP1 POP SWAP3 SWAP2 POP POP JUMP JUMPDEST PUSH0 DUP2 SWAP1 POP DUP2 PUSH0 MSTORE PUSH1 0x20 PUSH0 KECCAK256 SWAP1 POP SWAP2 SWAP1 POP JUMP JUMPDEST PUSH2 0xEC5 DUP2 PUSH2 0x8F4 JUMP JUMPDEST DUP3 MSTORE POP POP JUMP JUMPDEST PUSH0 PUSH2 0xED6 DUP4 DUP4 PUSH2 0xEBC JUMP JUMPDEST PUSH1 0x20 DUP4 ADD SWAP1 POP SWAP3 SWAP2 POP POP JUMP JUMPDEST PUSH0 DUP2 PUSH0 SHR SWAP1 POP SWAP2 SWAP1 POP JUMP JUMPDEST PUSH0 PUSH20 0xFFFFFFFFFFFFFFFFFFFFFFFFFFFFFFFFFFFFFFFF DUP3 AND SWAP1 POP SWAP2 SWAP1 POP JUMP JUMPDEST PUSH0 PUSH2 0xF1E PUSH2 0xF19 DUP4 PUSH2 0xEE2 JUMP JUMPDEST PUSH2 0xEED JUMP JUMPDEST SWAP1 POP SWAP2 SWAP1 POP JUMP JUMPDEST PUSH0 PUSH2 0xF30 DUP3 SLOAD PUSH2 0xF0C JUMP JUMPDEST SWAP1 POP SWAP2 SWAP1 POP JUMP JUMPDEST PUSH0 PUSH1 0x1 DUP3 ADD SWAP1 POP SWAP2 SWAP1 POP JUMP JUMPDEST PUSH0 PUSH2 0xF4D DUP3 PUSH2 0xE96 JUMP JUMPDEST PUSH2 0xF57 DUP2 DUP6 PUSH2 0xEA0 JUMP JUMPDEST SWAP4 POP PUSH2 0xF62 DUP4 PUSH2 0xEAA JUMP JUMPDEST DUP1 PUSH0 JUMPDEST DUP4 DUP2 LT ISZERO PUSH2 0xF99 JUMPI PUSH2 0xF76 DUP3 PUSH2 0xF25 JUMP JUMPDEST PUSH2 0xF80 DUP9 DUP3 PUSH2 0xECB JUMP JUMPDEST SWAP8 POP PUSH2 0xF8B DUP4 PUSH2 0xF37 JUMP JUMPDEST SWAP3 POP POP PUSH1 0x1 DUP2 ADD SWAP1 POP PUSH2 0xF65 JUMP JUMPDEST POP DUP6 SWAP4 POP POP POP POP SWAP3 SWAP2 POP POP JUMP JUMPDEST PUSH0 PUSH2 0xFB1 DUP3 DUP7 PUSH2 0xE7F JUMP JUMPDEST PUSH1 0x20 DUP3 ADD SWAP2 POP PUSH2 0xFC1 DUP3 DUP6 PUSH2 0xE7F JUMP JUMPDEST PUSH1 0x20 DUP3 ADD SWAP2 POP PUSH2 0xFD1 DUP3 DUP5 PUSH2 0xF43 JUMP JUMPDEST SWAP2 POP DUP2 SWAP1 POP SWAP5 SWAP4 POP POP POP POP JUMP JUMPDEST PUSH0 DUP2 MLOAD SWAP1 POP SWAP2 SWAP1 POP JUMP JUMPDEST PUSH0 DUP2 SWAP1 POP SWAP3 SWAP2 POP POP JUMP JUMPDEST PUSH0 JUMPDEST DUP4 DUP2 LT ISZERO PUSH2 0x100F JUMPI DUP1 DUP3 ADD MLOAD DUP2 DUP5 ADD MSTORE PUSH1 0x20 DUP2 ADD SWAP1 POP PUSH2 0xFF4 JUMP JUMPDEST PUSH0 DUP5 DUP5 ADD MSTORE POP POP POP POP JUMP JUMPDEST PUSH0 PUSH2 0x1024 DUP3 PUSH2 0xFDE JUMP JUMPDEST PUSH2 0x102E DUP2 DUP6 PUSH2 0xFE8 JUMP JUMPDEST SWAP4 POP PUSH2 0x103E DUP2 DUP6 PUSH1 0x20 DUP7 ADD PUSH2 0xFF2 JUMP JUMPDEST DUP1 DUP5 ADD SWAP2 POP POP SWAP3 SWAP2 POP POP JUMP JUMPDEST PUSH0 PUSH2 0x1055 DUP3 DUP5 PUSH2 0x101A JUMP JUMPDEST SWAP2 POP DUP2 SWAP1 POP SWAP3 SWAP2 POP POP JUMP JUMPDEST PUSH0 DUP2 SWAP1 POP SWAP2 SWAP1 POP JUMP JUMPDEST PUSH2 0x1072 DUP2 PUSH2 0x1060 JUMP JUMPDEST DUP2 EQ PUSH2 0x107C JUMPI PUSH0 DUP1 REVERT JUMPDEST POP JUMP JUMPDEST PUSH0 DUP2 MLOAD SWAP1 POP PUSH2 0x108D DUP2 PUSH2 0x1069 JUMP JUMPDEST SWAP3 SWAP2 POP POP JUMP JUMPDEST PUSH0 PUSH1 0x20 DUP3 DUP5 SUB SLT ISZERO PUSH2 0x10A8 JUMPI PUSH2 0x10A7 PUSH2 0xA0C JUMP JUMPDEST JUMPDEST PUSH0 PUSH2 0x10B5 DUP5 DUP3 DUP6 ADD PUSH2 0x107F JUMP JUMPDEST SWAP2 POP POP SWAP3 SWAP2 POP POP JUMP INVALID LOG2 PUSH5 0x6970667358 0x22 SLT KECCAK256 0xC3 PUSH32 0x2568D9D2DA83DD87663BAB86ED9CFB4BCE6B9151B58B38599E0BB13BFA476473 PUSH16 0x6C634300081600330000000000000000 "
				},
				"gasEstimates": {
					"creation": {
						"codeDepositCost": "868000",
						"executionCost": "25166",
						"totalCost": "893166"
					},
					"external": {
						"Enter()": "infinite",
						"PayWinner()": "infinite",
						"PickWinner()": "infinite",
						"RegPlayers()": "infinite",
						"ResetLottery()": "infinite",
						"WinningAmount()": "356",
						"manager()": "2528",
						"players(uint256)": "5010"
					},
					"internal": {
						"AlreadyRegistered()": "infinite",
						"Random()": "infinite"
					}
				},
				"methodIdentifiers": {
					"Enter()": "1097e579",
					"PayWinner()": "663df2cb",
					"PickWinner()": "b7d2c654",
					"RegPlayers()": "8906272b",
					"ResetLottery()": "893ef288",
					"WinningAmount()": "ab528275",
					"manager()": "481c6a75",
					"players(uint256)": "f71d96cb"
				}
			},
			"storageLayout": {
				"storage": [
					{
						"astId": 3,
						"contract": "contracts/Lottery.sol:Lottery",
						"label": "manager",
						"offset": 0,
						"slot": "0",
						"type": "t_address"
					},
					{
						"astId": 6,
						"contract": "contracts/Lottery.sol:Lottery",
						"label": "players",
						"offset": 0,
						"slot": "1",
						"type": "t_array(t_address_payable)dyn_storage"
					}
				],
				"types": {
					"t_address": {
						"encoding": "inplace",
						"label": "address",
						"numberOfBytes": "20"
					},
					"t_address_payable": {
						"encoding": "inplace",
						"label": "address payable",
						"numberOfBytes": "20"
					},
					"t_array(t_address_payable)dyn_storage": {
						"base": "t_address_payable",
						"encoding": "dynamic_array",
						"label": "address payable[]",
						"numberOfBytes": "32"
					}
				}
			},
			"userdoc": {
				"kind": "user",
				"methods": {},
				"version": 1
			}
		}
	}
}